:020000020000FC
:100000004FEF50E069E774E480E599E1A2E1B2E0E6
:10001000C8E7D0E0E0E1F0E244B947B94AB9F8B93D
:1000200055B9FBB90E9451016BB90E9451017BB9CE
:100030000E9451018BB90E9451019BB90E9451014C
:10004000ABB90E945101BBB90E945101CBB90E94CA
:100050005101DBB90E945101EBB90E94510168B90D
:1000600045B9FBB90E9451016BB90E9451017BB99E
:100070000E9451018BB90E9451019BB90E9451010C
:10008000ABB90E945101BBB90E945101CBB90E948A
:100090005101DBB90E945101EBB90E94510178B9BD
:1000A00045B9FBB90E9451016BB90E9451017BB95E
:1000B0000E9451018BB90E9451019BB90E945101CC
:1000C000ABB90E945101BBB90E945101CBB90E944A
:1000D0005101DBB90E945101EBB90E94510188B96D
:1000E00045B9FBB90E9451016BB90E9451017BB91E
:1000F0000E9451018BB90E9451019BB90E9451018C
:10010000ABB90E945101BBB90E945101CBB90E9409
:100110005101DBB90E945101EBB90E94510198B91C
:1001200055B9FBB90E9451016BB90E9451017BB9CD
:100130000E9451018BB90E9451019BB90E9451014B
:10014000ABB90E945101BBB90E945101CBB90E94C9
:100150005101DBB90E945101EBB90E945101A8B9CC
:1001600055B9FBB90E9451016BB90E9451017BB98D
:100170000E9451018BB90E9451019BB90E9451010B
:10018000ABB90E945101BBB90E945101CBB90E9489
:100190005101DBB90E945101EBB90E945101B8B97C
:1001A00055B9FBB90E9451016BB90E9451017BB94D
:1001B0000E9451018BB90E9451019BB90E945101CB
:1001C000ABB90E945101BBB90E945101CBB90E9449
:1001D0005101DBB90E945101EBB90E945101C8B92C
:1001E00055B9FBB90E9451016BB90E9451017BB90D
:1001F0000E9451018BB90E9451019BB90E9451018B
:10020000ABB90E945101BBB90E945101CBB90E9408
:100210005101DBB90E945101EBB90E945101D8B9DB
:1002200055B9FBB90E9451016BB90E9451017BB9CC
:100230000E9451018BB90E9451019BB90E9451014A
:10024000ABB90E945101BBB90E945101CBB90E94C8
:100250005101DBB90E945101EBB90E945101E8B98B
:1002600055B9FBB90E9451016BB90E9451017BB98C
:100270000E9451018BB90E9451019BB90E9451010A
:10028000ABB90E945101BBB90E945101CBB90E9488
:100290005101DBB90E945101EBB90E9451010C944C
:1002A0000F001CE02FEF3FEF3A95F1F72A95D9F7B1
:0602B0001A95C1F7089544
:00000001FF
