:020000020000FC
:1000000000E148E05FEF69E774E280E399E1A2E193
:10001000B2E0C8E7D0E0E0E1F0E4C7B95AB948B9C6
:10002000FBB90E94111908B9FBB90E94111948B90E
:10003000FBB90E94111908B9FBB90E94111948B9FE
:10004000FBB90E94111908B9FBB90E94111948B9EE
:10005000FBB90E94111908B9FBB90E94111948B9DE
:10006000FBB90E94111908B9FBB90E94111948B9CE
:10007000FBB90E94111908B9FBB90E94111948B9BE
:10008000FBB90E94111908B9FBB90E94111948B9AE
:10009000FBB90E94111908B9FBB90E94111948B99E
:1000A000FBB90E94111908B96BB90E94111948B91E
:1000B000FBB90E94111908B96BB90E94111948B90E
:1000C000FBB90E94111908B96BB90E94111948B9FE
:1000D000FBB90E94111908B96BB90E94111948B9EE
:1000E000FBB90E94111908B96BB90E94111948B9DE
:1000F000FBB90E94111908B96BB90E94111948B9CE
:10010000FBB90E94111908B96BB90E94111948B9BD
:10011000FBB90E94111908B96BB90E94111948B9AD
:10012000FBB90E94111908B97BB90E94111948B98D
:10013000FBB90E94111908B97BB90E94111948B97D
:10014000FBB90E94111908B97BB90E94111948B96D
:10015000FBB90E94111908B97BB90E94111948B95D
:10016000FBB90E94111908B97BB90E94111948B94D
:10017000FBB90E94111908B97BB90E94111948B93D
:10018000FBB90E94111908B97BB90E94111948B92D
:10019000FBB90E94111908B97BB90E94111948B91D
:1001A000FBB90E94111908B98BB90E94111948B9FD
:1001B000FBB90E94111908B98BB90E94111948B9ED
:1001C000FBB90E94111908B98BB90E94111948B9DD
:1001D000FBB90E94111908B98BB90E94111948B9CD
:1001E000FBB90E94111908B98BB90E94111948B9BD
:1001F000FBB90E94111908B98BB90E94111948B9AD
:10020000FBB90E94111908B98BB90E94111948B99C
:10021000FBB90E94111908B98BB90E94111948B98C
:10022000FBB90E94111908B99BB90E94111948B96C
:10023000FBB90E94111908B99BB90E94111948B95C
:10024000FBB90E94111908B99BB90E94111948B94C
:10025000FBB90E94111908B99BB90E94111948B93C
:10026000FBB90E94111908B99BB90E94111948B92C
:10027000FBB90E94111908B99BB90E94111948B91C
:10028000FBB90E94111908B99BB90E94111948B90C
:10029000FBB90E94111908B99BB90E94111948B9FC
:1002A000FBB90E94111908B9ABB90E94111948B9DC
:1002B000FBB90E94111908B9ABB90E94111948B9CC
:1002C000FBB90E94111908B9ABB90E94111948B9BC
:1002D000FBB90E94111908B9ABB90E94111948B9AC
:1002E000FBB90E94111908B9ABB90E94111948B99C
:1002F000FBB90E94111908B9ABB90E94111948B98C
:10030000FBB90E94111908B9ABB90E94111948B97B
:10031000FBB90E94111908B9ABB90E94111948B96B
:10032000FBB90E94111908B9BBB90E94111948B94B
:10033000FBB90E94111908B9BBB90E94111948B93B
:10034000FBB90E94111908B9BBB90E94111948B92B
:10035000FBB90E94111908B9BBB90E94111948B91B
:10036000FBB90E94111908B9BBB90E94111948B90B
:10037000FBB90E94111908B9BBB90E94111948B9FB
:10038000FBB90E94111908B9BBB90E94111948B9EB
:10039000FBB90E94111908B9BBB90E94111948B9DB
:1003A000FBB90E94111908B9CBB90E94111948B9BB
:1003B000FBB90E94111908B9CBB90E94111948B9AB
:1003C000FBB90E94111908B9CBB90E94111948B99B
:1003D000FBB90E94111908B9CBB90E94111948B98B
:1003E000FBB90E94111908B9CBB90E94111948B97B
:1003F000FBB90E94111908B9CBB90E94111948B96B
:10040000FBB90E94111908B9CBB90E94111948B95A
:10041000FBB90E94111908B9CBB90E94111948B94A
:10042000FBB90E94111908B9DBB90E94111948B92A
:10043000FBB90E94111908B9DBB90E94111948B91A
:10044000FBB90E94111908B9DBB90E94111948B90A
:10045000FBB90E94111908B9DBB90E94111948B9FA
:10046000FBB90E94111908B9DBB90E94111948B9EA
:10047000FBB90E94111908B9DBB90E94111948B9DA
:10048000FBB90E94111908B9DBB90E94111948B9CA
:10049000FBB90E94111908B9DBB90E94111948B9BA
:1004A000FBB90E94111908B9EBB90E94111948B99A
:1004B000FBB90E94111908B9EBB90E94111948B98A
:1004C000FBB90E94111908B9EBB90E94111948B97A
:1004D000FBB90E94111908B9EBB90E94111948B96A
:1004E000FBB90E94111908B9EBB90E94111948B95A
:1004F000FBB90E94111908B9EBB90E94111948B94A
:10050000FBB90E94111908B9EBB90E94111948B939
:10051000FBB90E94111908B9EBB90E94111948B929
:100520006BB90E94111908B9FBB90E94111948B999
:100530006BB90E94111908B9FBB90E94111948B989
:100540006BB90E94111908B9FBB90E94111948B979
:100550006BB90E94111908B9FBB90E94111948B969
:100560006BB90E94111908B9FBB90E94111948B959
:100570006BB90E94111908B9FBB90E94111948B949
:100580006BB90E94111908B9FBB90E94111948B939
:100590006BB90E94111908B9FBB90E94111948B929
:1005A0006BB90E94111908B96BB90E94111948B9A9
:1005B0006BB90E94111908B96BB90E94111948B999
:1005C0006BB90E94111908B96BB90E94111948B989
:1005D0006BB90E94111908B96BB90E94111948B979
:1005E0006BB90E94111908B96BB90E94111948B969
:1005F0006BB90E94111908B96BB90E94111948B959
:100600006BB90E94111908B96BB90E94111948B948
:100610006BB90E94111908B96BB90E94111948B938
:100620006BB90E94111908B97BB90E94111948B918
:100630006BB90E94111908B97BB90E94111948B908
:100640006BB90E94111908B97BB90E94111948B9F8
:100650006BB90E94111908B97BB90E94111948B9E8
:100660006BB90E94111908B97BB90E94111948B9D8
:100670006BB90E94111908B97BB90E94111948B9C8
:100680006BB90E94111908B97BB90E94111948B9B8
:100690006BB90E94111908B97BB90E94111948B9A8
:1006A0006BB90E94111908B98BB90E94111948B988
:1006B0006BB90E94111908B98BB90E94111948B978
:1006C0006BB90E94111908B98BB90E94111948B968
:1006D0006BB90E94111908B98BB90E94111948B958
:1006E0006BB90E94111908B98BB90E94111948B948
:1006F0006BB90E94111908B98BB90E94111948B938
:100700006BB90E94111908B98BB90E94111948B927
:100710006BB90E94111908B98BB90E94111948B917
:100720006BB90E94111908B99BB90E94111948B9F7
:100730006BB90E94111908B99BB90E94111948B9E7
:100740006BB90E94111908B99BB90E94111948B9D7
:100750006BB90E94111908B99BB90E94111948B9C7
:100760006BB90E94111908B99BB90E94111948B9B7
:100770006BB90E94111908B99BB90E94111948B9A7
:100780006BB90E94111908B99BB90E94111948B997
:100790006BB90E94111908B99BB90E94111948B987
:1007A0006BB90E94111908B9ABB90E94111948B967
:1007B0006BB90E94111908B9ABB90E94111948B957
:1007C0006BB90E94111908B9ABB90E94111948B947
:1007D0006BB90E94111908B9ABB90E94111948B937
:1007E0006BB90E94111908B9ABB90E94111948B927
:1007F0006BB90E94111908B9ABB90E94111948B917
:100800006BB90E94111908B9ABB90E94111948B906
:100810006BB90E94111908B9ABB90E94111948B9F6
:100820006BB90E94111908B9BBB90E94111948B9D6
:100830006BB90E94111908B9BBB90E94111948B9C6
:100840006BB90E94111908B9BBB90E94111948B9B6
:100850006BB90E94111908B9BBB90E94111948B9A6
:100860006BB90E94111908B9BBB90E94111948B996
:100870006BB90E94111908B9BBB90E94111948B986
:100880006BB90E94111908B9BBB90E94111948B976
:100890006BB90E94111908B9BBB90E94111948B966
:1008A0006BB90E94111908B9CBB90E94111948B946
:1008B0006BB90E94111908B9CBB90E94111948B936
:1008C0006BB90E94111908B9CBB90E94111948B926
:1008D0006BB90E94111908B9CBB90E94111948B916
:1008E0006BB90E94111908B9CBB90E94111948B906
:1008F0006BB90E94111908B9CBB90E94111948B9F6
:100900006BB90E94111908B9CBB90E94111948B9E5
:100910006BB90E94111908B9CBB90E94111948B9D5
:100920006BB90E94111908B9DBB90E94111948B9B5
:100930006BB90E94111908B9DBB90E94111948B9A5
:100940006BB90E94111908B9DBB90E94111948B995
:100950006BB90E94111908B9DBB90E94111948B985
:100960006BB90E94111908B9DBB90E94111948B975
:100970006BB90E94111908B9DBB90E94111948B965
:100980006BB90E94111908B9DBB90E94111948B955
:100990006BB90E94111908B9DBB90E94111948B945
:1009A0006BB90E94111908B9EBB90E94111948B925
:1009B0006BB90E94111908B9EBB90E94111948B915
:1009C0006BB90E94111908B9EBB90E94111948B905
:1009D0006BB90E94111908B9EBB90E94111948B9F5
:1009E0006BB90E94111908B9EBB90E94111948B9E5
:1009F0006BB90E94111908B9EBB90E94111948B9D5
:100A00006BB90E94111908B9EBB90E94111948B9C4
:100A10006BB90E94111908B9EBB90E94111948B9B4
:100A20007BB90E94111908B9FBB90E94111948B984
:100A30007BB90E94111908B9FBB90E94111948B974
:100A40007BB90E94111908B9FBB90E94111948B964
:100A50007BB90E94111908B9FBB90E94111948B954
:100A60007BB90E94111908B9FBB90E94111948B944
:100A70007BB90E94111908B9FBB90E94111948B934
:100A80007BB90E94111908B9FBB90E94111948B924
:100A90007BB90E94111908B9FBB90E94111948B914
:100AA0007BB90E94111908B96BB90E94111948B994
:100AB0007BB90E94111908B96BB90E94111948B984
:100AC0007BB90E94111908B96BB90E94111948B974
:100AD0007BB90E94111908B96BB90E94111948B964
:100AE0007BB90E94111908B96BB90E94111948B954
:100AF0007BB90E94111908B96BB90E94111948B944
:100B00007BB90E94111908B96BB90E94111948B933
:100B10007BB90E94111908B96BB90E94111948B923
:100B20007BB90E94111908B97BB90E94111948B903
:100B30007BB90E94111908B97BB90E94111948B9F3
:100B40007BB90E94111908B97BB90E94111948B9E3
:100B50007BB90E94111908B97BB90E94111948B9D3
:100B60007BB90E94111908B97BB90E94111948B9C3
:100B70007BB90E94111908B97BB90E94111948B9B3
:100B80007BB90E94111908B97BB90E94111948B9A3
:100B90007BB90E94111908B97BB90E94111948B993
:100BA0007BB90E94111908B98BB90E94111948B973
:100BB0007BB90E94111908B98BB90E94111948B963
:100BC0007BB90E94111908B98BB90E94111948B953
:100BD0007BB90E94111908B98BB90E94111948B943
:100BE0007BB90E94111908B98BB90E94111948B933
:100BF0007BB90E94111908B98BB90E94111948B923
:100C00007BB90E94111908B98BB90E94111948B912
:100C10007BB90E94111908B98BB90E94111948B902
:100C20007BB90E94111908B99BB90E94111948B9E2
:100C30007BB90E94111908B99BB90E94111948B9D2
:100C40007BB90E94111908B99BB90E94111948B9C2
:100C50007BB90E94111908B99BB90E94111948B9B2
:100C60007BB90E94111908B99BB90E94111948B9A2
:100C70007BB90E94111908B99BB90E94111948B992
:100C80007BB90E94111908B99BB90E94111948B982
:100C90007BB90E94111908B99BB90E94111948B972
:100CA0007BB90E94111908B9ABB90E94111948B952
:100CB0007BB90E94111908B9ABB90E94111948B942
:100CC0007BB90E94111908B9ABB90E94111948B932
:100CD0007BB90E94111908B9ABB90E94111948B922
:100CE0007BB90E94111908B9ABB90E94111948B912
:100CF0007BB90E94111908B9ABB90E94111948B902
:100D00007BB90E94111908B9ABB90E94111948B9F1
:100D10007BB90E94111908B9ABB90E94111948B9E1
:100D20007BB90E94111908B9BBB90E94111948B9C1
:100D30007BB90E94111908B9BBB90E94111948B9B1
:100D40007BB90E94111908B9BBB90E94111948B9A1
:100D50007BB90E94111908B9BBB90E94111948B991
:100D60007BB90E94111908B9BBB90E94111948B981
:100D70007BB90E94111908B9BBB90E94111948B971
:100D80007BB90E94111908B9BBB90E94111948B961
:100D90007BB90E94111908B9BBB90E94111948B951
:100DA0007BB90E94111908B9CBB90E94111948B931
:100DB0007BB90E94111908B9CBB90E94111948B921
:100DC0007BB90E94111908B9CBB90E94111948B911
:100DD0007BB90E94111908B9CBB90E94111948B901
:100DE0007BB90E94111908B9CBB90E94111948B9F1
:100DF0007BB90E94111908B9CBB90E94111948B9E1
:100E00007BB90E94111908B9CBB90E94111948B9D0
:100E10007BB90E94111908B9CBB90E94111948B9C0
:100E20007BB90E94111908B9DBB90E94111948B9A0
:100E30007BB90E94111908B9DBB90E94111948B990
:100E40007BB90E94111908B9DBB90E94111948B980
:100E50007BB90E94111908B9DBB90E94111948B970
:100E60007BB90E94111908B9DBB90E94111948B960
:100E70007BB90E94111908B9DBB90E94111948B950
:100E80007BB90E94111908B9DBB90E94111948B940
:100E90007BB90E94111908B9DBB90E94111948B930
:100EA0007BB90E94111908B9EBB90E94111948B910
:100EB0007BB90E94111908B9EBB90E94111948B900
:100EC0007BB90E94111908B9EBB90E94111948B9F0
:100ED0007BB90E94111908B9EBB90E94111948B9E0
:100EE0007BB90E94111908B9EBB90E94111948B9D0
:100EF0007BB90E94111908B9EBB90E94111948B9C0
:100F00007BB90E94111908B9EBB90E94111948B9AF
:100F10007BB90E94111908B9EBB90E94111948B99F
:100F20008BB90E94111908B9FBB90E94111948B96F
:100F30008BB90E94111908B9FBB90E94111948B95F
:100F40008BB90E94111908B9FBB90E94111948B94F
:100F50008BB90E94111908B9FBB90E94111948B93F
:100F60008BB90E94111908B9FBB90E94111948B92F
:100F70008BB90E94111908B9FBB90E94111948B91F
:100F80008BB90E94111908B9FBB90E94111948B90F
:100F90008BB90E94111908B9FBB90E94111948B9FF
:100FA0008BB90E94111908B96BB90E94111948B97F
:100FB0008BB90E94111908B96BB90E94111948B96F
:100FC0008BB90E94111908B96BB90E94111948B95F
:100FD0008BB90E94111908B96BB90E94111948B94F
:100FE0008BB90E94111908B96BB90E94111948B93F
:100FF0008BB90E94111908B96BB90E94111948B92F
:101000008BB90E94111908B96BB90E94111948B91E
:101010008BB90E94111908B96BB90E94111948B90E
:101020008BB90E94111908B97BB90E94111948B9EE
:101030008BB90E94111908B97BB90E94111948B9DE
:101040008BB90E94111908B97BB90E94111948B9CE
:101050008BB90E94111908B97BB90E94111948B9BE
:101060008BB90E94111908B97BB90E94111948B9AE
:101070008BB90E94111908B97BB90E94111948B99E
:101080008BB90E94111908B97BB90E94111948B98E
:101090008BB90E94111908B97BB90E94111948B97E
:1010A0008BB90E94111908B98BB90E94111948B95E
:1010B0008BB90E94111908B98BB90E94111948B94E
:1010C0008BB90E94111908B98BB90E94111948B93E
:1010D0008BB90E94111908B98BB90E94111948B92E
:1010E0008BB90E94111908B98BB90E94111948B91E
:1010F0008BB90E94111908B98BB90E94111948B90E
:101100008BB90E94111908B98BB90E94111948B9FD
:101110008BB90E94111908B98BB90E94111948B9ED
:101120008BB90E94111908B99BB90E94111948B9CD
:101130008BB90E94111908B99BB90E94111948B9BD
:101140008BB90E94111908B99BB90E94111948B9AD
:101150008BB90E94111908B99BB90E94111948B99D
:101160008BB90E94111908B99BB90E94111948B98D
:101170008BB90E94111908B99BB90E94111948B97D
:101180008BB90E94111908B99BB90E94111948B96D
:101190008BB90E94111908B99BB90E94111948B95D
:1011A0008BB90E94111908B9ABB90E94111948B93D
:1011B0008BB90E94111908B9ABB90E94111948B92D
:1011C0008BB90E94111908B9ABB90E94111948B91D
:1011D0008BB90E94111908B9ABB90E94111948B90D
:1011E0008BB90E94111908B9ABB90E94111948B9FD
:1011F0008BB90E94111908B9ABB90E94111948B9ED
:101200008BB90E94111908B9ABB90E94111948B9DC
:101210008BB90E94111908B9ABB90E94111948B9CC
:101220008BB90E94111908B9BBB90E94111948B9AC
:101230008BB90E94111908B9BBB90E94111948B99C
:101240008BB90E94111908B9BBB90E94111948B98C
:101250008BB90E94111908B9BBB90E94111948B97C
:101260008BB90E94111908B9BBB90E94111948B96C
:101270008BB90E94111908B9BBB90E94111948B95C
:101280008BB90E94111908B9BBB90E94111948B94C
:101290008BB90E94111908B9BBB90E94111948B93C
:1012A0008BB90E94111908B9CBB90E94111948B91C
:1012B0008BB90E94111908B9CBB90E94111948B90C
:1012C0008BB90E94111908B9CBB90E94111948B9FC
:1012D0008BB90E94111908B9CBB90E94111948B9EC
:1012E0008BB90E94111908B9CBB90E94111948B9DC
:1012F0008BB90E94111908B9CBB90E94111948B9CC
:101300008BB90E94111908B9CBB90E94111948B9BB
:101310008BB90E94111908B9CBB90E94111948B9AB
:101320008BB90E94111908B9DBB90E94111948B98B
:101330008BB90E94111908B9DBB90E94111948B97B
:101340008BB90E94111908B9DBB90E94111948B96B
:101350008BB90E94111908B9DBB90E94111948B95B
:101360008BB90E94111908B9DBB90E94111948B94B
:101370008BB90E94111908B9DBB90E94111948B93B
:101380008BB90E94111908B9DBB90E94111948B92B
:101390008BB90E94111908B9DBB90E94111948B91B
:1013A0008BB90E94111908B9EBB90E94111948B9FB
:1013B0008BB90E94111908B9EBB90E94111948B9EB
:1013C0008BB90E94111908B9EBB90E94111948B9DB
:1013D0008BB90E94111908B9EBB90E94111948B9CB
:1013E0008BB90E94111908B9EBB90E94111948B9BB
:1013F0008BB90E94111908B9EBB90E94111948B9AB
:101400008BB90E94111908B9EBB90E94111948B99A
:101410008BB90E94111908B9EBB90E94111948B98A
:101420009BB90E94111908B9FBB90E94111948B95A
:101430009BB90E94111908B9FBB90E94111948B94A
:101440009BB90E94111908B9FBB90E94111948B93A
:101450009BB90E94111908B9FBB90E94111948B92A
:101460009BB90E94111908B9FBB90E94111948B91A
:101470009BB90E94111908B9FBB90E94111948B90A
:101480009BB90E94111908B9FBB90E94111948B9FA
:101490009BB90E94111908B9FBB90E94111948B9EA
:1014A0009BB90E94111908B96BB90E94111948B96A
:1014B0009BB90E94111908B96BB90E94111948B95A
:1014C0009BB90E94111908B96BB90E94111948B94A
:1014D0009BB90E94111908B96BB90E94111948B93A
:1014E0009BB90E94111908B96BB90E94111948B92A
:1014F0009BB90E94111908B96BB90E94111948B91A
:101500009BB90E94111908B96BB90E94111948B909
:101510009BB90E94111908B96BB90E94111948B9F9
:101520009BB90E94111908B97BB90E94111948B9D9
:101530009BB90E94111908B97BB90E94111948B9C9
:101540009BB90E94111908B97BB90E94111948B9B9
:101550009BB90E94111908B97BB90E94111948B9A9
:101560009BB90E94111908B97BB90E94111948B999
:101570009BB90E94111908B97BB90E94111948B989
:101580009BB90E94111908B97BB90E94111948B979
:101590009BB90E94111908B97BB90E94111948B969
:1015A0009BB90E94111908B98BB90E94111948B949
:1015B0009BB90E94111908B98BB90E94111948B939
:1015C0009BB90E94111908B98BB90E94111948B929
:1015D0009BB90E94111908B98BB90E94111948B919
:1015E0009BB90E94111908B98BB90E94111948B909
:1015F0009BB90E94111908B98BB90E94111948B9F9
:101600009BB90E94111908B98BB90E94111948B9E8
:101610009BB90E94111908B98BB90E94111948B9D8
:101620009BB90E94111908B99BB90E94111948B9B8
:101630009BB90E94111908B99BB90E94111948B9A8
:101640009BB90E94111908B99BB90E94111948B998
:101650009BB90E94111908B99BB90E94111948B988
:101660009BB90E94111908B99BB90E94111948B978
:101670009BB90E94111908B99BB90E94111948B968
:101680009BB90E94111908B99BB90E94111948B958
:101690009BB90E94111908B99BB90E94111948B948
:1016A0009BB90E94111908B9ABB90E94111948B928
:1016B0009BB90E94111908B9ABB90E94111948B918
:1016C0009BB90E94111908B9ABB90E94111948B908
:1016D0009BB90E94111908B9ABB90E94111948B9F8
:1016E0009BB90E94111908B9ABB90E94111948B9E8
:1016F0009BB90E94111908B9ABB90E94111948B9D8
:101700009BB90E94111908B9ABB90E94111948B9C7
:101710009BB90E94111908B9ABB90E94111948B9B7
:101720009BB90E94111908B9BBB90E94111948B997
:101730009BB90E94111908B9BBB90E94111948B987
:101740009BB90E94111908B9BBB90E94111948B977
:101750009BB90E94111908B9BBB90E94111948B967
:101760009BB90E94111908B9BBB90E94111948B957
:101770009BB90E94111908B9BBB90E94111948B947
:101780009BB90E94111908B9BBB90E94111948B937
:101790009BB90E94111908B9BBB90E94111948B927
:1017A0009BB90E94111908B9CBB90E94111948B907
:1017B0009BB90E94111908B9CBB90E94111948B9F7
:1017C0009BB90E94111908B9CBB90E94111948B9E7
:1017D0009BB90E94111908B9CBB90E94111948B9D7
:1017E0009BB90E94111908B9CBB90E94111948B9C7
:1017F0009BB90E94111908B9CBB90E94111948B9B7
:101800009BB90E94111908B9CBB90E94111948B9A6
:101810009BB90E94111908B9CBB90E94111948B996
:101820009BB90E94111908B9DBB90E94111948B976
:101830009BB90E94111908B9DBB90E94111948B966
:101840009BB90E94111908B9DBB90E94111948B956
:101850009BB90E94111908B9DBB90E94111948B946
:101860009BB90E94111908B9DBB90E94111948B936
:101870009BB90E94111908B9DBB90E94111948B926
:101880009BB90E94111908B9DBB90E94111948B916
:101890009BB90E94111908B9DBB90E94111948B906
:1018A0009BB90E94111908B9EBB90E94111948B9E6
:1018B0009BB90E94111908B9EBB90E94111948B9D6
:1018C0009BB90E94111908B9EBB90E94111948B9C6
:1018D0009BB90E94111908B9EBB90E94111948B9B6
:1018E0009BB90E94111908B9EBB90E94111948B9A6
:1018F0009BB90E94111908B9EBB90E94111948B996
:101900009BB90E94111908B9EBB90E94111948B985
:101910009BB90E94111908B9EBB90E94111948B975
:10192000ABB90E94111908B9FBB90E94111948B945
:10193000ABB90E94111908B9FBB90E94111948B935
:10194000ABB90E94111908B9FBB90E94111948B925
:10195000ABB90E94111908B9FBB90E94111948B915
:10196000ABB90E94111908B9FBB90E94111948B905
:10197000ABB90E94111908B9FBB90E94111948B9F5
:10198000ABB90E94111908B9FBB90E94111948B9E5
:10199000ABB90E94111908B9FBB90E94111948B9D5
:1019A000ABB90E94111908B9ABB90E94111948B915
:1019B000ABB90E94111908B9ABB90E94111948B905
:1019C000ABB90E94111908B9ABB90E94111948B9F5
:1019D000ABB90E94111908B9ABB90E94111948B9E5
:1019E000ABB90E94111908B9ABB90E94111948B9D5
:1019F000ABB90E94111908B9ABB90E94111948B9C5
:101A0000ABB90E94111908B9ABB90E94111948B9B4
:101A1000ABB90E94111908B9ABB90E94111948B9A4
:101A2000ABB90E94111908B97BB90E94111948B9C4
:101A3000ABB90E94111908B97BB90E94111948B9B4
:101A4000ABB90E94111908B97BB90E94111948B9A4
:101A5000ABB90E94111908B97BB90E94111948B994
:101A6000ABB90E94111908B97BB90E94111948B984
:101A7000ABB90E94111908B97BB90E94111948B974
:101A8000ABB90E94111908B97BB90E94111948B964
:101A9000ABB90E94111908B97BB90E94111948B954
:101AA000ABB90E94111908B98BB90E94111948B934
:101AB000ABB90E94111908B98BB90E94111948B924
:101AC000ABB90E94111908B98BB90E94111948B914
:101AD000ABB90E94111908B98BB90E94111948B904
:101AE000ABB90E94111908B98BB90E94111948B9F4
:101AF000ABB90E94111908B98BB90E94111948B9E4
:101B0000ABB90E94111908B98BB90E94111948B9D3
:101B1000ABB90E94111908B98BB90E94111948B9C3
:101B2000ABB90E94111908B99BB90E94111948B9A3
:101B3000ABB90E94111908B99BB90E94111948B993
:101B4000ABB90E94111908B99BB90E94111948B983
:101B5000ABB90E94111908B99BB90E94111948B973
:101B6000ABB90E94111908B99BB90E94111948B963
:101B7000ABB90E94111908B99BB90E94111948B953
:101B8000ABB90E94111908B99BB90E94111948B943
:101B9000ABB90E94111908B99BB90E94111948B933
:101BA000ABB90E94111908B9ABB90E94111948B913
:101BB000ABB90E94111908B9ABB90E94111948B903
:101BC000ABB90E94111908B9ABB90E94111948B9F3
:101BD000ABB90E94111908B9ABB90E94111948B9E3
:101BE000ABB90E94111908B9ABB90E94111948B9D3
:101BF000ABB90E94111908B9ABB90E94111948B9C3
:101C0000ABB90E94111908B9ABB90E94111948B9B2
:101C1000ABB90E94111908B9ABB90E94111948B9A2
:101C2000ABB90E94111908B9BBB90E94111948B982
:101C3000ABB90E94111908B9BBB90E94111948B972
:101C4000ABB90E94111908B9BBB90E94111948B962
:101C5000ABB90E94111908B9BBB90E94111948B952
:101C6000ABB90E94111908B9BBB90E94111948B942
:101C7000ABB90E94111908B9BBB90E94111948B932
:101C8000ABB90E94111908B9BBB90E94111948B922
:101C9000ABB90E94111908B9BBB90E94111948B912
:101CA000ABB90E94111908B9CBB90E94111948B9F2
:101CB000ABB90E94111908B9CBB90E94111948B9E2
:101CC000ABB90E94111908B9CBB90E94111948B9D2
:101CD000ABB90E94111908B9CBB90E94111948B9C2
:101CE000ABB90E94111908B9CBB90E94111948B9B2
:101CF000ABB90E94111908B9CBB90E94111948B9A2
:101D0000ABB90E94111908B9CBB90E94111948B991
:101D1000ABB90E94111908B9CBB90E94111948B981
:101D2000ABB90E94111908B9DBB90E94111948B961
:101D3000ABB90E94111908B9DBB90E94111948B951
:101D4000ABB90E94111908B9DBB90E94111948B941
:101D5000ABB90E94111908B9DBB90E94111948B931
:101D6000ABB90E94111908B9DBB90E94111948B921
:101D7000ABB90E94111908B9DBB90E94111948B911
:101D8000ABB90E94111908B9DBB90E94111948B901
:101D9000ABB90E94111908B9DBB90E94111948B9F1
:101DA000ABB90E94111908B9EBB90E94111948B9D1
:101DB000ABB90E94111908B9EBB90E94111948B9C1
:101DC000ABB90E94111908B9EBB90E94111948B9B1
:101DD000ABB90E94111908B9EBB90E94111948B9A1
:101DE000ABB90E94111908B9EBB90E94111948B991
:101DF000ABB90E94111908B9EBB90E94111948B981
:101E0000ABB90E94111908B9EBB90E94111948B970
:101E1000ABB90E94111908B9EBB90E94111948B960
:101E2000BBB90E94111908B9FBB90E94111948B930
:101E3000BBB90E94111908B9FBB90E94111948B920
:101E4000BBB90E94111908B9FBB90E94111948B910
:101E5000BBB90E94111908B9FBB90E94111948B900
:101E6000BBB90E94111908B9FBB90E94111948B9F0
:101E7000BBB90E94111908B9FBB90E94111948B9E0
:101E8000BBB90E94111908B9FBB90E94111948B9D0
:101E9000BBB90E94111908B9FBB90E94111948B9C0
:101EA000BBB90E94111908B9BBB90E94111948B9F0
:101EB000BBB90E94111908B9BBB90E94111948B9E0
:101EC000BBB90E94111908B9BBB90E94111948B9D0
:101ED000BBB90E94111908B9BBB90E94111948B9C0
:101EE000BBB90E94111908B9BBB90E94111948B9B0
:101EF000BBB90E94111908B9BBB90E94111948B9A0
:101F0000BBB90E94111908B9BBB90E94111948B98F
:101F1000BBB90E94111908B9BBB90E94111948B97F
:101F2000BBB90E94111908B97BB90E94111948B9AF
:101F3000BBB90E94111908B97BB90E94111948B99F
:101F4000BBB90E94111908B97BB90E94111948B98F
:101F5000BBB90E94111908B97BB90E94111948B97F
:101F6000BBB90E94111908B97BB90E94111948B96F
:101F7000BBB90E94111908B97BB90E94111948B95F
:101F8000BBB90E94111908B97BB90E94111948B94F
:101F9000BBB90E94111908B97BB90E94111948B93F
:101FA000BBB90E94111908B98BB90E94111948B91F
:101FB000BBB90E94111908B98BB90E94111948B90F
:101FC000BBB90E94111908B98BB90E94111948B9FF
:101FD000BBB90E94111908B98BB90E94111948B9EF
:101FE000BBB90E94111908B98BB90E94111948B9DF
:101FF000BBB90E94111908B98BB90E94111948B9CF
:10200000BBB90E94111908B98BB90E94111948B9BE
:10201000BBB90E94111908B98BB90E94111948B9AE
:10202000BBB90E94111908B99BB90E94111948B98E
:10203000BBB90E94111908B99BB90E94111948B97E
:10204000BBB90E94111908B99BB90E94111948B96E
:10205000BBB90E94111908B99BB90E94111948B95E
:10206000BBB90E94111908B99BB90E94111948B94E
:10207000BBB90E94111908B99BB90E94111948B93E
:10208000BBB90E94111908B99BB90E94111948B92E
:10209000BBB90E94111908B99BB90E94111948B91E
:1020A000BBB90E94111908B9ABB90E94111948B9FE
:1020B000BBB90E94111908B9ABB90E94111948B9EE
:1020C000BBB90E94111908B9ABB90E94111948B9DE
:1020D000BBB90E94111908B9ABB90E94111948B9CE
:1020E000BBB90E94111908B9ABB90E94111948B9BE
:1020F000BBB90E94111908B9ABB90E94111948B9AE
:10210000BBB90E94111908B9ABB90E94111948B99D
:10211000BBB90E94111908B9ABB90E94111948B98D
:10212000BBB90E94111908B9BBB90E94111948B96D
:10213000BBB90E94111908B9BBB90E94111948B95D
:10214000BBB90E94111908B9BBB90E94111948B94D
:10215000BBB90E94111908B9BBB90E94111948B93D
:10216000BBB90E94111908B9BBB90E94111948B92D
:10217000BBB90E94111908B9BBB90E94111948B91D
:10218000BBB90E94111908B9BBB90E94111948B90D
:10219000BBB90E94111908B9BBB90E94111948B9FD
:1021A000BBB90E94111908B9CBB90E94111948B9DD
:1021B000BBB90E94111908B9CBB90E94111948B9CD
:1021C000BBB90E94111908B9CBB90E94111948B9BD
:1021D000BBB90E94111908B9CBB90E94111948B9AD
:1021E000BBB90E94111908B9CBB90E94111948B99D
:1021F000BBB90E94111908B9CBB90E94111948B98D
:10220000BBB90E94111908B9CBB90E94111948B97C
:10221000BBB90E94111908B9CBB90E94111948B96C
:10222000BBB90E94111908B9DBB90E94111948B94C
:10223000BBB90E94111908B9DBB90E94111948B93C
:10224000BBB90E94111908B9DBB90E94111948B92C
:10225000BBB90E94111908B9DBB90E94111948B91C
:10226000BBB90E94111908B9DBB90E94111948B90C
:10227000BBB90E94111908B9DBB90E94111948B9FC
:10228000BBB90E94111908B9DBB90E94111948B9EC
:10229000BBB90E94111908B9DBB90E94111948B9DC
:1022A000BBB90E94111908B9EBB90E94111948B9BC
:1022B000BBB90E94111908B9EBB90E94111948B9AC
:1022C000BBB90E94111908B9EBB90E94111948B99C
:1022D000BBB90E94111908B9EBB90E94111948B98C
:1022E000BBB90E94111908B9EBB90E94111948B97C
:1022F000BBB90E94111908B9EBB90E94111948B96C
:10230000BBB90E94111908B9EBB90E94111948B95B
:10231000BBB90E94111908B9EBB90E94111948B94B
:10232000CBB90E94111908B9FBB90E94111948B91B
:10233000CBB90E94111908B9FBB90E94111948B90B
:10234000CBB90E94111908B9FBB90E94111948B9FB
:10235000CBB90E94111908B9FBB90E94111948B9EB
:10236000CBB90E94111908B9FBB90E94111948B9DB
:10237000CBB90E94111908B9FBB90E94111948B9CB
:10238000CBB90E94111908B9FBB90E94111948B9BB
:10239000CBB90E94111908B9FBB90E94111948B9AB
:1023A000CBB90E94111908B9CBB90E94111948B9CB
:1023B000CBB90E94111908B9CBB90E94111948B9BB
:1023C000CBB90E94111908B9CBB90E94111948B9AB
:1023D000CBB90E94111908B9CBB90E94111948B99B
:1023E000CBB90E94111908B9CBB90E94111948B98B
:1023F000CBB90E94111908B9CBB90E94111948B97B
:10240000CBB90E94111908B9CBB90E94111948B96A
:10241000CBB90E94111908B9CBB90E94111948B95A
:10242000CBB90E94111908B97BB90E94111948B99A
:10243000CBB90E94111908B97BB90E94111948B98A
:10244000CBB90E94111908B97BB90E94111948B97A
:10245000CBB90E94111908B97BB90E94111948B96A
:10246000CBB90E94111908B97BB90E94111948B95A
:10247000CBB90E94111908B97BB90E94111948B94A
:10248000CBB90E94111908B97BB90E94111948B93A
:10249000CBB90E94111908B97BB90E94111948B92A
:1024A000CBB90E94111908B98BB90E94111948B90A
:1024B000CBB90E94111908B98BB90E94111948B9FA
:1024C000CBB90E94111908B98BB90E94111948B9EA
:1024D000CBB90E94111908B98BB90E94111948B9DA
:1024E000CBB90E94111908B98BB90E94111948B9CA
:1024F000CBB90E94111908B98BB90E94111948B9BA
:10250000CBB90E94111908B98BB90E94111948B9A9
:10251000CBB90E94111908B98BB90E94111948B999
:10252000CBB90E94111908B99BB90E94111948B979
:10253000CBB90E94111908B99BB90E94111948B969
:10254000CBB90E94111908B99BB90E94111948B959
:10255000CBB90E94111908B99BB90E94111948B949
:10256000CBB90E94111908B99BB90E94111948B939
:10257000CBB90E94111908B99BB90E94111948B929
:10258000CBB90E94111908B99BB90E94111948B919
:10259000CBB90E94111908B99BB90E94111948B909
:1025A000CBB90E94111908B9ABB90E94111948B9E9
:1025B000CBB90E94111908B9ABB90E94111948B9D9
:1025C000CBB90E94111908B9ABB90E94111948B9C9
:1025D000CBB90E94111908B9ABB90E94111948B9B9
:1025E000CBB90E94111908B9ABB90E94111948B9A9
:1025F000CBB90E94111908B9ABB90E94111948B999
:10260000CBB90E94111908B9ABB90E94111948B988
:10261000CBB90E94111908B9ABB90E94111948B978
:10262000CBB90E94111908B9BBB90E94111948B958
:10263000CBB90E94111908B9BBB90E94111948B948
:10264000CBB90E94111908B9BBB90E94111948B938
:10265000CBB90E94111908B9BBB90E94111948B928
:10266000CBB90E94111908B9BBB90E94111948B918
:10267000CBB90E94111908B9BBB90E94111948B908
:10268000CBB90E94111908B9BBB90E94111948B9F8
:10269000CBB90E94111908B9BBB90E94111948B9E8
:1026A000CBB90E94111908B9CBB90E94111948B9C8
:1026B000CBB90E94111908B9CBB90E94111948B9B8
:1026C000CBB90E94111908B9CBB90E94111948B9A8
:1026D000CBB90E94111908B9CBB90E94111948B998
:1026E000CBB90E94111908B9CBB90E94111948B988
:1026F000CBB90E94111908B9CBB90E94111948B978
:10270000CBB90E94111908B9CBB90E94111948B967
:10271000CBB90E94111908B9CBB90E94111948B957
:10272000CBB90E94111908B9DBB90E94111948B937
:10273000CBB90E94111908B9DBB90E94111948B927
:10274000CBB90E94111908B9DBB90E94111948B917
:10275000CBB90E94111908B9DBB90E94111948B907
:10276000CBB90E94111908B9DBB90E94111948B9F7
:10277000CBB90E94111908B9DBB90E94111948B9E7
:10278000CBB90E94111908B9DBB90E94111948B9D7
:10279000CBB90E94111908B9DBB90E94111948B9C7
:1027A000CBB90E94111908B9EBB90E94111948B9A7
:1027B000CBB90E94111908B9EBB90E94111948B997
:1027C000CBB90E94111908B9EBB90E94111948B987
:1027D000CBB90E94111908B9EBB90E94111948B977
:1027E000CBB90E94111908B9EBB90E94111948B967
:1027F000CBB90E94111908B9EBB90E94111948B957
:10280000CBB90E94111908B9EBB90E94111948B946
:10281000CBB90E94111908B9EBB90E94111948B936
:10282000DBB90E94111908B9FBB90E94111948B906
:10283000DBB90E94111908B9FBB90E94111948B9F6
:10284000DBB90E94111908B9FBB90E94111948B9E6
:10285000DBB90E94111908B9FBB90E94111948B9D6
:10286000DBB90E94111908B9FBB90E94111948B9C6
:10287000DBB90E94111908B9FBB90E94111948B9B6
:10288000DBB90E94111908B9FBB90E94111948B9A6
:10289000DBB90E94111908B9FBB90E94111948B996
:1028A000DBB90E94111908B9DBB90E94111948B9A6
:1028B000DBB90E94111908B9DBB90E94111948B996
:1028C000DBB90E94111908B9DBB90E94111948B986
:1028D000DBB90E94111908B9DBB90E94111948B976
:1028E000DBB90E94111908B9DBB90E94111948B966
:1028F000DBB90E94111908B9DBB90E94111948B956
:10290000DBB90E94111908B9DBB90E94111948B945
:10291000DBB90E94111908B9DBB90E94111948B935
:10292000DBB90E94111908B97BB90E94111948B985
:10293000DBB90E94111908B97BB90E94111948B975
:10294000DBB90E94111908B97BB90E94111948B965
:10295000DBB90E94111908B97BB90E94111948B955
:10296000DBB90E94111908B97BB90E94111948B945
:10297000DBB90E94111908B97BB90E94111948B935
:10298000DBB90E94111908B97BB90E94111948B925
:10299000DBB90E94111908B97BB90E94111948B915
:1029A000DBB90E94111908B98BB90E94111948B9F5
:1029B000DBB90E94111908B98BB90E94111948B9E5
:1029C000DBB90E94111908B98BB90E94111948B9D5
:1029D000DBB90E94111908B98BB90E94111948B9C5
:1029E000DBB90E94111908B98BB90E94111948B9B5
:1029F000DBB90E94111908B98BB90E94111948B9A5
:102A0000DBB90E94111908B98BB90E94111948B994
:102A1000DBB90E94111908B98BB90E94111948B984
:102A2000DBB90E94111908B99BB90E94111948B964
:102A3000DBB90E94111908B99BB90E94111948B954
:102A4000DBB90E94111908B99BB90E94111948B944
:102A5000DBB90E94111908B99BB90E94111948B934
:102A6000DBB90E94111908B99BB90E94111948B924
:102A7000DBB90E94111908B99BB90E94111948B914
:102A8000DBB90E94111908B99BB90E94111948B904
:102A9000DBB90E94111908B99BB90E94111948B9F4
:102AA000DBB90E94111908B9ABB90E94111948B9D4
:102AB000DBB90E94111908B9ABB90E94111948B9C4
:102AC000DBB90E94111908B9ABB90E94111948B9B4
:102AD000DBB90E94111908B9ABB90E94111948B9A4
:102AE000DBB90E94111908B9ABB90E94111948B994
:102AF000DBB90E94111908B9ABB90E94111948B984
:102B0000DBB90E94111908B9ABB90E94111948B973
:102B1000DBB90E94111908B9ABB90E94111948B963
:102B2000DBB90E94111908B9BBB90E94111948B943
:102B3000DBB90E94111908B9BBB90E94111948B933
:102B4000DBB90E94111908B9BBB90E94111948B923
:102B5000DBB90E94111908B9BBB90E94111948B913
:102B6000DBB90E94111908B9BBB90E94111948B903
:102B7000DBB90E94111908B9BBB90E94111948B9F3
:102B8000DBB90E94111908B9BBB90E94111948B9E3
:102B9000DBB90E94111908B9BBB90E94111948B9D3
:102BA000DBB90E94111908B9CBB90E94111948B9B3
:102BB000DBB90E94111908B9CBB90E94111948B9A3
:102BC000DBB90E94111908B9CBB90E94111948B993
:102BD000DBB90E94111908B9CBB90E94111948B983
:102BE000DBB90E94111908B9CBB90E94111948B973
:102BF000DBB90E94111908B9CBB90E94111948B963
:102C0000DBB90E94111908B9CBB90E94111948B952
:102C1000DBB90E94111908B9CBB90E94111948B942
:102C2000DBB90E94111908B9DBB90E94111948B922
:102C3000DBB90E94111908B9DBB90E94111948B912
:102C4000DBB90E94111908B9DBB90E94111948B902
:102C5000DBB90E94111908B9DBB90E94111948B9F2
:102C6000DBB90E94111908B9DBB90E94111948B9E2
:102C7000DBB90E94111908B9DBB90E94111948B9D2
:102C8000DBB90E94111908B9DBB90E94111948B9C2
:102C9000DBB90E94111908B9DBB90E94111948B9B2
:102CA000DBB90E94111908B9EBB90E94111948B992
:102CB000DBB90E94111908B9EBB90E94111948B982
:102CC000DBB90E94111908B9EBB90E94111948B972
:102CD000DBB90E94111908B9EBB90E94111948B962
:102CE000DBB90E94111908B9EBB90E94111948B952
:102CF000DBB90E94111908B9EBB90E94111948B942
:102D0000DBB90E94111908B9EBB90E94111948B931
:102D1000DBB90E94111908B9EBB90E94111948B921
:102D2000EBB90E94111908B9FBB90E94111948B9F1
:102D3000EBB90E94111908B9FBB90E94111948B9E1
:102D4000EBB90E94111908B9FBB90E94111948B9D1
:102D5000EBB90E94111908B9FBB90E94111948B9C1
:102D6000EBB90E94111908B9FBB90E94111948B9B1
:102D7000EBB90E94111908B9FBB90E94111948B9A1
:102D8000EBB90E94111908B9FBB90E94111948B991
:102D9000EBB90E94111908B9FBB90E94111948B981
:102DA000EBB90E94111908B9EBB90E94111948B981
:102DB000EBB90E94111908B9EBB90E94111948B971
:102DC000EBB90E94111908B9EBB90E94111948B961
:102DD000EBB90E94111908B9EBB90E94111948B951
:102DE000EBB90E94111908B9EBB90E94111948B941
:102DF000EBB90E94111908B9EBB90E94111948B931
:102E0000EBB90E94111908B9EBB90E94111948B920
:102E1000EBB90E94111908B9EBB90E94111948B910
:102E2000EBB90E94111908B97BB90E94111948B970
:102E3000EBB90E94111908B97BB90E94111948B960
:102E4000EBB90E94111908B97BB90E94111948B950
:102E5000EBB90E94111908B97BB90E94111948B940
:102E6000EBB90E94111908B97BB90E94111948B930
:102E7000EBB90E94111908B97BB90E94111948B920
:102E8000EBB90E94111908B97BB90E94111948B910
:102E9000EBB90E94111908B97BB90E94111948B900
:102EA000EBB90E94111908B98BB90E94111948B9E0
:102EB000EBB90E94111908B98BB90E94111948B9D0
:102EC000EBB90E94111908B98BB90E94111948B9C0
:102ED000EBB90E94111908B98BB90E94111948B9B0
:102EE000EBB90E94111908B98BB90E94111948B9A0
:102EF000EBB90E94111908B98BB90E94111948B990
:102F0000EBB90E94111908B98BB90E94111948B97F
:102F1000EBB90E94111908B98BB90E94111948B96F
:102F2000EBB90E94111908B99BB90E94111948B94F
:102F3000EBB90E94111908B99BB90E94111948B93F
:102F4000EBB90E94111908B99BB90E94111948B92F
:102F5000EBB90E94111908B99BB90E94111948B91F
:102F6000EBB90E94111908B99BB90E94111948B90F
:102F7000EBB90E94111908B99BB90E94111948B9FF
:102F8000EBB90E94111908B99BB90E94111948B9EF
:102F9000EBB90E94111908B99BB90E94111948B9DF
:102FA000EBB90E94111908B9ABB90E94111948B9BF
:102FB000EBB90E94111908B9ABB90E94111948B9AF
:102FC000EBB90E94111908B9ABB90E94111948B99F
:102FD000EBB90E94111908B9ABB90E94111948B98F
:102FE000EBB90E94111908B9ABB90E94111948B97F
:102FF000EBB90E94111908B9ABB90E94111948B96F
:10300000EBB90E94111908B9ABB90E94111948B95E
:10301000EBB90E94111908B9ABB90E94111948B94E
:10302000EBB90E94111908B9BBB90E94111948B92E
:10303000EBB90E94111908B9BBB90E94111948B91E
:10304000EBB90E94111908B9BBB90E94111948B90E
:10305000EBB90E94111908B9BBB90E94111948B9FE
:10306000EBB90E94111908B9BBB90E94111948B9EE
:10307000EBB90E94111908B9BBB90E94111948B9DE
:10308000EBB90E94111908B9BBB90E94111948B9CE
:10309000EBB90E94111908B9BBB90E94111948B9BE
:1030A000EBB90E94111908B9CBB90E94111948B99E
:1030B000EBB90E94111908B9CBB90E94111948B98E
:1030C000EBB90E94111908B9CBB90E94111948B97E
:1030D000EBB90E94111908B9CBB90E94111948B96E
:1030E000EBB90E94111908B9CBB90E94111948B95E
:1030F000EBB90E94111908B9CBB90E94111948B94E
:10310000EBB90E94111908B9CBB90E94111948B93D
:10311000EBB90E94111908B9CBB90E94111948B92D
:10312000EBB90E94111908B9DBB90E94111948B90D
:10313000EBB90E94111908B9DBB90E94111948B9FD
:10314000EBB90E94111908B9DBB90E94111948B9ED
:10315000EBB90E94111908B9DBB90E94111948B9DD
:10316000EBB90E94111908B9DBB90E94111948B9CD
:10317000EBB90E94111908B9DBB90E94111948B9BD
:10318000EBB90E94111908B9DBB90E94111948B9AD
:10319000EBB90E94111908B9DBB90E94111948B99D
:1031A000EBB90E94111908B9EBB90E94111948B97D
:1031B000EBB90E94111908B9EBB90E94111948B96D
:1031C000EBB90E94111908B9EBB90E94111948B95D
:1031D000EBB90E94111908B9EBB90E94111948B94D
:1031E000EBB90E94111908B9EBB90E94111948B93D
:1031F000EBB90E94111908B9EBB90E94111948B92D
:10320000EBB90E94111908B9EBB90E94111948B91C
:10321000EBB90E94111908B9EBB90E9411190C946D
:103220000F0011E02CE838EC3A95F1F72A95D9F720
:063230001A95C1F7089594
:00000001FF
