:100000000C9475000C9492000C9492000C94920045
:100010000C9492000C9492000C9492000C94920018
:100020000C9492000C9492000C9492000C94920008
:100030000C9492000C9492000C9492000C949200F8
:100040000C9492000C9492000C9492000C949200E8
:100050000C9492000C9492000C9492000C949200D8
:100060000C9492000C94920007634236B79BD8A779
:100070001A39685618AEBAAB558C1D3CB7CC5763CD
:10008000BD6DEDFD753EF6177231BF000000803F7B
:1000900008000000BE922449123EABAAAA2ABECD97
:1000A000CCCC4C3E00000080BEABAAAAAA3E000009
:1000B0000000BF000000803F000000000008417801
:1000C000D3BB4387D1133D190E3CC3BD4282AD2B38
:1000D0003E68EC8276BED98FE1A93E4C80EFFFBE30
:1000E00001C4FF7F3F000000000011241FBECFEFBE
:1000F000D8E0DEBFCDBF11E0A0E0B1E0E4ECFBE072
:1001000002C005900D92A230B107D9F721E0A2E01C
:10011000B1E001C01D92A630B207E1F70E944E0186
:100120000C94E0050C94000020E8009721F0813049
:10013000910541F421EF2BB98530910541F484E21A
:100140008BB908958230910539F428E42BB98630B3
:10015000910539F484E0F4CF8330910539F420E639
:100160002BB98730910559F480EBEACF84309105A3
:1001700019F721E32BB9099721F780E2E1CF883005
:100180009105C9F71BB8089520E4009721F081304C
:10019000910541F429E725B98530910541F482E1C3
:1001A00085B908958230910539F424E225B9863065
:1001B000910539F482E0F4CF8330910539F420E3DE
:1001C00025B98730910559F488E5EACF8430910547
:1001D00019F729E125B9099721F780E1E1CF8830A6
:1001E0009105C9F715B80895DF92EF92FF920F932A
:1001F0001F93CF93DF93D0E0C0E08AE0E82EF12C8C
:1002000090E8D92ECE01B7010E94E3018C0161155F
:100210007105C1F4DBB80E94C4002FEF84E39CE0B9
:10022000215080409040E1F700C000002196C33685
:10023000D10541F7DF91CF911F910F91FF90EF9082
:10024000DF900895CB010E949400C801E4CF90E4B0
:1002500090937C0090917C00892B80937C0080910E
:100260007A00806580937A0080917A0084FFFCCFC9
:1002700080917A008F7B80937A00809178009091B2
:1002800079000895FC019191992339F08091C00083
:1002900085FFFCCF9093C600F6CF0895CF93DF93F0
:1002A000CDB7DEB728970FB6F894DEBF0FBECDBF2F
:1002B00080E8809361001092610017B880917A0005
:1002C000806880937A001092C50089E18093C40011
:1002D0008091C20086608093C2008091C1008860D6
:1002E0008093C1008FEF8AB984B985B98BB98AE050
:1002F000E82EF12C04E610E0812C912C540190E0C2
:1003000080E00E942701BC0190E080E00E94200371
:100310009B01AC01C501B4010E940C024B015C01C0
:100320000150110961F720E030E048EC52E40E94EE
:1003300078024B015C0120E030E040EA50E40E948A
:10034000AE0320E030E040E85AE30E94AE0326EA24
:100350003AE544EB51E40E9478022CEC3EE848E890
:100360005FEB0E941B040E94EA028B0170E060E0D8
:100370000A3011052CF0C801B7010E94E3018C017D
:10038000CB010E949400C8010E94C400C501B401C1
:100390000E94EA02CB014AE0BE016F5F7F4F0E94DC
:1003A000AB058C0160E071E00E94A005C8010E94CD
:1003B00042012FEF84E39CE0215080409040E1F720
:1003C00000C0000097CF97FB072E16F4009407D0CB
:1003D00077FD09D00E94F70107FC05D03EF4909507
:1003E00081959F4F0895709561957F4F0895AA1B41
:1003F000BB1B51E107C0AA1FBB1FA617B70710F010
:10040000A61BB70B881F991F5A95A9F78095909541
:10041000BC01CD0108955058BB27AA270E94230292
:100420000C9474030E94660338F00E946D0320F060
:1004300039F49F3F19F426F40C9463030EF4E0950D
:10044000E7FB0C945D03E92F0E94850358F3BA176C
:10045000620773078407950720F079F4A6F50C94DA
:10046000A7030EF4E0950B2EBA2FA02D0B01B901B6
:1004700090010C01CA01A0011124FF27591B99F01A
:10048000593F50F4503E68F11A16F040A22F232F26
:10049000342F4427585FF3CF469537952795A79576
:1004A000F0405395C9F77EF41F16BA0B620B730B1D
:1004B000840BBAF09150A1F0FF0FBB1F661F771F8E
:1004C000881FC2F70EC0BA0F621F731F841F48F443
:1004D000879577956795B795F7959E3F08F0B0CFCC
:1004E0009395880F08F09927EE0F979587950895B3
:1004F0000E948C020C9474030E946D0358F00E94B9
:10050000660340F029F45F3F29F00C945D0351111C
:100510000C94A8030C9463030E94850368F3992349
:10052000B1F3552391F3951B550BBB27AA276217EF
:100530007307840738F09F5F5F4F220F331F441FFC
:10054000AA1FA9F335D00E2E3AF0E0E832D0915030
:100550005040E695001CCAF72BD0FE2F29D0660F1D
:10056000771F881FBB1F261737074807AB07B0E860
:1005700009F0BB0B802DBF01FF2793585F4F3AF066
:100580009E3F510578F00C945D030C94A8035F3FE7
:10059000E4F3983ED4F3869577956795B795F795EC
:1005A0009F5FC9F7880F911D9695879597F90895D4
:1005B000E1E0660F771F881FBB1F62177307840770
:1005C000BA0720F0621B730B840BBA0BEE1F88F77F
:1005D000E09508950E94F1026894B1110C94A8036B
:1005E00008950E948D0388F09F5798F0B92F99279E
:1005F000B751B0F0E1F0660F771F881F991F1AF00E
:10060000BA95C9F714C0B13091F00E94A703B1E0C8
:1006100008950C94A703672F782F8827B85F39F0C7
:10062000B93FCCF3869577956795B395D9F73EF4A6
:1006300090958095709561957F4F8F4F9F4F08954E
:10064000E89409C097FB3EF490958095709561956C
:100650007F4F8F4F9F4F9923A9F0F92F96E9BB2722
:100660009395F695879577956795B795F111F8CF9E
:10067000FAF4BB0F11F460FF1BC06F5F7F4F8F4F09
:100680009F4F16C0882311F096E911C0772321F0FF
:100690009EE8872F762F05C0662371F096E8862F97
:1006A00070E060E02AF09A95660F771F881FDAF7EE
:1006B000880F9695879597F9089597F99F6780E831
:1006C00070E060E008959FEF80EC089500240A94A4
:1006D0001616170618060906089500240A9412161D
:1006E0001306140605060895092E0394000C11F450
:1006F000882352F0BB0F40F4BF2B11F460FF04C0FD
:100700006F5F7F4F8F4F9F4F089557FD9058440F55
:10071000551F59F05F3F71F04795880F97FB991F60
:1007200061F09F3F79F0879508951216130614061D
:10073000551FF2CF4695F1DF08C0161617061806AA
:10074000991FF1CF86957105610508940895E89485
:10075000BB2766277727CB0197F908950E94C1032D
:100760000C9474030E94660338F00E946D0320F01D
:10077000952311F00C945D030C94630311240C94E5
:10078000A8030E94850370F3959FC1F3950F50E075
:10079000551F629FF001729FBB27F00DB11D639F33
:1007A000AA27F00DB11DAA1F649F6627B00DA11DD9
:1007B000661F829F2227B00DA11D621F739FB00D7F
:1007C000A11D621F839FA00D611D221F749F3327EF
:1007D000A00D611D231F849F600D211D822F762F88
:1007E0006A2F11249F5750409AF0F1F088234AF065
:1007F000EE0FFF1FBB1F661F771F881F91505040D1
:10080000A9F79E3F510580F00C945D030C94A8035A
:100810005F3FE4F3983ED4F3869577956795B79557
:10082000F795E7959F5FC1F7FE2B880F911D969571
:10083000879597F90895FA01EE0FFF1F309621056D
:100840003105A1F16115710561F48038BFE39B07A3
:1008500049F168949038810561F08038BFEF9B07BB
:1008600041F099234AF5FF3FE1053105210519F1D2
:10087000E8940894E795D901AA2329F4AB2FBE2F59
:10088000F85FD0F310C0FF5F70F4A695E0F7F7397A
:1008900050F019F0FF3A38F49F779F930DD00F90E6
:1008A00007FC9058089546F00C94630360E070E0F4
:1008B00080E89FE308954FE79F775F934F933F93BF
:1008C0002F930E9416052F913F914F915F910E94A7
:1008D000AE030C94730429F416F00C945D030C948D
:1008E000A7030C9463030E948D03A8F39638A0F726
:1008F00007F80F92E8942BE33AEA48EB5FE70E948F
:10090000C4030F920F920F924DB75EB70F920E94E1
:100910005E05E8E6F0E00E94A5044F915F91EF913B
:10092000FF91E595EE1FFF1F49F0FE57E068442751
:10093000EE0F441FFA95E1F74195550B0E94D8043C
:100940000F9007FE0C94CC040895DF93CF931F9370
:100950000F93FF92EF92DF927B018C01689406C0A7
:10096000DA2EEF010E94C103FE01E894A5912591C2
:10097000359145915591A6F3EF010E942302FE01A6
:100980009701A801DA9469F7DF90EF90FF900F913B
:100990001F91CF91DF9108959B01AC0160E070E061
:1009A00080E89FE30C9478020C945D030C9492050C
:1009B0000E948D03D8F39923C9F3940F511DA3F31B
:1009C0009150504094F059F0882332F0660F771F11
:1009D000881F91505040C1F79E3F51052CF7880F5A
:1009E000911D9695879597F908955F3FACF0983ED5
:1009F0009CF0BB27869577956795B79508F4B1600D
:100A00009395C1F7BB0F58F711F460FFE8CF6F5F04
:100A10007F4F8F4F9F4FE3CF0C94A80316F00C9499
:100A200092050C94630368940C945D030E948D03FB
:100A3000A8F39923C1F3AEF3DF93CF931F930F93E2
:100A4000FF92C92FDD2788232AF02197660F771F91
:100A5000881FDAF720E030E040E85FEB9FE3883959
:100A600020F0803E38F021968F770E940C02E0E95A
:100A7000F0E004C00E940C02EDEBF0E00E94A5043F
:100A80008B01BE01EC01FB2E6F5771097595771F25
:100A9000880B990B0E94220328E132E741E35FE3D0
:100AA0000E94C103AF2D9801AE01FF900F911F91DD
:100AB000CF91DF910E9423020C947403FA01DC01B0
:100AC000AA0FBB1F9B01AC01BF5728F42227332775
:100AD0004427507820C0B75190F4AB2F002446959E
:100AE00037952795011CA395D2F3002071F0220FB2
:100AF000331F441FB395DAF30ED00C940B02613010
:100B00007105A0E88A07B94630F49B01AC0166275D
:100B1000772788279078309621F02083318342838D
:100B2000538308959F3F31F0915020F48795779536
:100B30006795B795880F911D9695879597F90895B4
:100B4000FB01DC010D900020E9F7119701900D9257
:100B50000020E1F70895BB274A3031F4992322F4AD
:100B6000BDE2909581959F4F0C94B705BB27FB0183
:100B70005527AA27880F991FAA1FA41710F0A41B96
:100B800083955051B9F7A05DAA3308F0A95DA193F0
:100B9000009779F7B111B1931192CB010C94D00564
:100BA000DC01FC01672F71917723E1F7329704C0D4
:100BB0007C916D9370836291AE17BF07C8F308955F
:040BC000F894FFCFD7
:020BC4000A0025
:00000001FF
