:100000000C9434000C943E000C943E000C943E0082
:100010000C943E000C943E000C943E000C943E0068
:100020000C943E000C943E000C943E000C943E0058
:100030000C943E000C943E000C943E000C943E0048
:100040000C943E000C943E000C943E000C943E0038
:100050000C943E000C943E000C943E000C943E0028
:100060000C943E000C943E0011241FBECFEFD8E04C
:10007000DEBFCDBF0E94B8010C94DA040C940000DE
:1000800017BC18BC1092B3001092B400089517BCAE
:1000900082ED88BD1092B30082E38093B40008958E
:1000A00017BC82E388BD1092B30082ED8093B40048
:1000B000089517BC81EE88BD1092B3008093B40000
:1000C000089590E490937C0090917C00982B9093FD
:1000D0007C0080917A00806580937A0080917A001C
:1000E00084FFFCCF80917A008F7B80937A0080918F
:1000F000780090917900089591E490937C0090911C
:100100007C00982B90937C0080917A00806580938E
:100110007A0080917A0084FFFCCF80917A008F7BF7
:1001200080937A008091780090917900089592E808
:1001300090937C0090917C00982B90937C00809110
:100140007A00806580937A0080917A0084FFFCCFEA
:1001500080917A008F7B80937A00809178009091D3
:1001600079000895FC018191882339F09091C000B5
:1001700095FFFCCF8093C600F6CF08952F923F9253
:100180004F925F926F927F928F929F92AF92BF92A7
:10019000CF92DF92EF92FF920F931F93CF93DF9353
:1001A00000D000D000D0CDB7DEB73901280117014B
:1001B000F601750154012081318142815381DB01B7
:1001C0006D917D918D919C910E94A8026B018C0193
:1001D0009B01AC01F40160817181828193810E9455
:1001E000A902D4016D937D938D939C931397EB8D0E
:1001F000FC8D2081318142815381C982DA820B8357
:100200001C8369817A818B819C810E94A8024B01A9
:100210008D839E83CB01AD81BE81ED8DFE8D80836C
:100220009183A283B383D5012D913D914D915C9132
:10023000F20160817181828193810E9449045B0196
:10024000582E492ED3012D913D914D915C9169819C
:100250007A818B819C810E9449049B01AC01A98217
:10026000BA825B824C8269817A818B819C810E94F7
:10027000A9023B015C01F10120813181428153815E
:1002800089829A82FD81FB838E818C8369817A8148
:100290008B819C810E9449049B01AC0169827A8216
:1002A000AB82BC8269817A818B819C810E94A90288
:1002B00020E030E048EC52E469837A838B839C83AE
:1002C00069817A818B819C810E9415034B015C01BD
:1002D000D7012D913D914D915C9169839A828B83D9
:1002E000BC8269817A818B819C810E94A902698389
:1002F0007A838B839C8369817A818B819C810E9424
:10030000870368BD9401A501F70160817181828135
:1003100093810E94A80269837A838B839C8369817D
:100320007A818B819C810E9487036093B400C6010F
:10033000D801EB8DFC8D80839183A283B3832696B5
:100340000FB6F894DEBF0FBECDBFDF91CF911F91E6
:100350000F91FF90EF90DF90CF90BF90AF909F9064
:100360008F907F906F905F904F903F902F90089567
:1003700000D000D000D0CDB7DEB780E88093610018
:1003800083E0809361008FEF8AB984B917B891EA4E
:1003900094BD82E085BD9093B0008093B1008091C0
:1003A0007A00806880937A008AE0A82EB12CC12C54
:1003B000D12CE12CF12C612C712C812C912C00E0A2
:1003C00010E01E821D8290E080E00E9461009C018E
:1003D00050E040E029833A834B835C83CA01B90132
:1003E0000E94B6039B01AC0109831A838E818B8323
:1003F0008D818C8369817A818B819C810E94A90285
:100400008B018E839D8381E090E00E947C009C01A3
:1004100050E040E029833A834B835C83CA01B901F1
:100420000E94B6039B01AC0169827A828B829C8216
:1004300069817A818B819C810E94A9023B014C01D8
:1004400082E090E00E9497009C0150E040E0298308
:100450003A834B835C83CA01B9010E94B6039B01B6
:10046000AC01C982DA82EB82FC8269817A818B815C
:100470009C810E94A9026B017C0131E0A31AB108A2
:1004800009F0A1CF20E030E040E251E469827A82B5
:100490008B829C8269817A818B819C810E94150369
:1004A00020E030E04AEF53E469837A838B839C83B6
:1004B00069817A818B819C810E94440418161CF406
:1004C0000E9459006CCF20E030E040E251E4C98244
:1004D000DA82EB82FC8269817A818B819C810E9425
:1004E000150320E030E04AEF53E469837A838B837D
:1004F0009C8369817A818B819C810E9444041816B7
:100500001CF40E9447004BCF20E030E040E251E471
:1005100009831A838E818B838D818C8369817A8193
:100520008B819C810E94150320E030E04AEF53E468
:1005300069837A838B839C8369817A818B819C8197
:100540000E94440418160CF02ACF0E94500027CFB6
:100550005058BB27AA270E94C0020C940A040E948C
:10056000FC0338F00E94030420F039F49F3F19F493
:1005700026F40C94F9030EF4E095E7FB0C94F303D6
:10058000E92F0E941B0458F3BA1762077307840708
:10059000950720F079F4A6F50C943D040EF4E0954F
:1005A0000B2EBA2FA02D0B01B90190010C01CA012D
:1005B000A0011124FF27591B99F0593F50F4503ED8
:1005C00068F11A16F040A22F232F342F4427585FCA
:1005D000F3CF469537952795A795F0405395C9F7E2
:1005E0007EF41F16BA0B620B730B840BBAF091509A
:1005F000A1F0FF0FBB1F661F771F881FC2F70EC039
:10060000BA0F621F731F841F48F48795779567950B
:10061000B795F7959E3F08F0B0CF9395880F08F0F7
:100620009927EE0F9795879508950E9429030C94BA
:100630000A040E94030458F00E94FC0340F029F4CD
:100640005F3F29F00C94F30351110C943E040C9479
:10065000F9030E941B0468F39923B1F3552391F326
:10066000951B550BBB27AA2762177307840738F021
:100670009F5F5F4F220F331F441FAA1FA9F335D07E
:100680000E2E3AF0E0E832D091505040E695001C32
:10069000CAF72BD0FE2F29D0660F771F881FBB1FEC
:1006A000261737074807AB07B0E809F0BB0B802DCA
:1006B000BF01FF2793585F4F3AF09E3F510578F0F6
:1006C0000C94F3030C943E045F3FE4F3983ED4F3A0
:1006D000869577956795B795F7959F5FC9F7880FCA
:1006E000911D9695879597F90895E1E0660F771F1C
:1006F000881FBB1F621773078407BA0720F0621BAD
:10070000730B840BBA0BEE1F88F7E09508950E94D7
:10071000230488F09F5798F0B92F9927B751B0F06C
:10072000E1F0660F771F881F991F1AF0BA95C9F775
:1007300014C0B13091F00E943D04B1E008950C94D2
:100740003D04672F782F8827B85F39F0B93FCCF385
:10075000869577956795B395D9F73EF490958095F2
:10076000709561957F4F8F4F9F4F0895E89409C012
:1007700097FB3EF490958095709561957F4F8F4FD4
:100780009F4F9923A9F0F92F96E9BB279395F695EA
:10079000879577956795B795F111F8CFFAF4BB0F68
:1007A00011F460FF1BC06F5F7F4F8F4F9F4F16C0CC
:1007B000882311F096E911C0772321F09EE8872F56
:1007C000762F05C0662371F096E8862F70E060E012
:1007D0002AF09A95660F771F881FDAF7880F96958B
:1007E000879597F9089597F99F6780E870E060E032
:1007F00008959FEF80EC089500240A9416161706BA
:1008000018060906089500240A9412161306140601
:1008100005060895092E0394000C11F4882352F064
:10082000BB0F40F4BF2B11F460FF04C06F5F7F4F1C
:100830008F4F9F4F089557FD9058440F551F59F003
:100840005F3F71F04795880F97FB991F61F09F3FBD
:1008500079F087950895121613061406551FF2CFE6
:100860004695F1DF08C0161617061806991FF1CF36
:1008700086957105610508940895E894BB2766275D
:100880007727CB0197F908950E94B60408F48FEFFB
:1008900008950E945C040C940A040E94FC0338F042
:1008A0000E94030420F0952311F00C94F3030C94A0
:1008B000F90311240C943E040E941B0470F3959FCD
:1008C000C1F3950F50E0551F629FF001729FBB2747
:1008D000F00DB11D639FAA27F00DB11DAA1F649FE3
:1008E0006627B00DA11D661F829F2227B00DA11D96
:1008F000621F739FB00DA11D621F839FA00D611D1C
:10090000221F749F3327A00D611D231F849F600D3C
:10091000211D822F762F6A2F11249F5750409AF065
:10092000F1F088234AF0EE0FFF1FBB1F661F771FF1
:10093000881F91505040A9F79E3F510580F00C94BC
:10094000F3030C943E045F3FE4F3983ED4F38695A2
:1009500077956795B795F795E7959F5FC1F7FE2B5C
:10096000880F911D9695879597F90895990F00081E
:10097000550FAA0BE0E8FEEF16161706E807F90771
:10098000C0F012161306E407F50798F0621B730B0C
:10099000840B950B39F40A2661F0232B242B252B8D
:1009A00021F408950A2609F4A140A6958FEF811D30
:0809B000811D0895F894FFCFAA
:00000001FF
