:100000000C9434000C9449000C9449000C94490061
:100010000C9449000C9449000C9449000C9449003C
:100020000C9449000C9449000C9449000C9449002C
:100030000C9449000C9449000C9449000C9449001C
:100040000C9449000C9449000C9449000C9449000C
:100050000C9449000C9449000C9449000C944900FC
:100060000C9449000C94490011241FBECFEFD8E036
:10007000DEBFCDBF11E0A0E0B1E0ECE7F2E002C0EE
:1000800005900D92A031B107D9F70E949D000C9404
:100090003C010C94000093E490937C0090917C00D0
:1000A000892B80937C0080917A00806580937A0010
:1000B00080917A0084FFFCCF80917A008F7B8093BF
:1000C0007A008091780090917900089594E290935D
:1000D0007C0090917C00892B80937C0080917A0039
:1000E000806580937A0080917A0084FFFCCF8091B4
:1000F0007A008F7B80937A008091780090917900CC
:1001000008951092C50083E38093C400E2ECF0E010
:10011000808186608083E1ECF0E08081886080836C
:100120000895FC019191992339F08091C00085FFD9
:10013000FCCF9093C600F6CF0895CF93DF93CDB751
:10014000DEB728970FB6F894DEBF0FBECDBF80E8AC
:100150008093610083E0809361008FEF8AB984B956
:1001600017B891EA94BD82E085BD9093B00080936A
:10017000B1000E94810080E8D82E80917A008068CA
:1001800080937A0083E090E00E944B008C0184E031
:1001900090E00E9466007C01D092610010926100A4
:1001A00080E091E00E9491004AE0BE016F5F7F4FC6
:1001B000C8010E9407018C0166E071E00E94FC000A
:1001C000C8010E9491004AE0BE016F5F7F4FC701E6
:1001D0000E9407018C016DE071E00E94FC00C801E3
:1001E0000E9491002FEF84E39CE0215080409040DA
:1001F000E1F700C00000C1CFFB01DC010D90002041
:10020000E9F7119701900D920020E1F70895BB27BF
:100210004A3031F4992322F4BDE2909581959F4FA5
:100220000C941301BB27FB015527AA27880F991FA0
:10023000AA1FA41710F0A41B83955051B9F7A05D15
:10024000AA3308F0A95DA193009779F7B111B19392
:100250001192CB010C942C01DC01FC01672F7191F0
:100260007723E1F7329704C07C916D93708362919C
:0C027000AE17BF07C8F30895F894FFCF45
:10027C00444D533A20002C2049523A20000A0000E9
:00000001FF
