:100000000C9434000C9449000C9449000C94490061
:100010000C9449000C9449000C9449000C9449003C
:100020000C9449000C9449000C9449000C9449002C
:100030000C9449000C9449000C9449000C9449001C
:100040000C9449000C9449000C9449000C9449000C
:100050000C9449000C9449000C9449000C944900FC
:100060000C9449000C94490011241FBECFEFD8E036
:10007000DEBFCDBF11E0A0E0B1E0E4E3F6E002C0F6
:1000800005900D92A230B107D9F70E94C8000C94D8
:1000900018030C94000017BC18BC1092B300109207
:1000A000B400089517BC80E588BD1092B30010928B
:1000B000B400089517BC18BC1092B30085E5809376
:1000C000B400089517BC80E588BD1092B30085E5A3
:1000D0008093B400089590E490937C0090917C000C
:1000E000892B80937C0080917A00806580937A00D0
:1000F00080917A0084FFFCCF80917A008F7B80937F
:100100007A008091780090917900089591E490931D
:100110007C0090917C00892B80937C0080917A00F8
:10012000806580937A0080917A0084FFFCCF809173
:100130007A008F7B80937A0080917800909179008B
:10014000089592E890937C0090917C00892B809395
:100150007C0080917A00806580937A0080917A009B
:1001600084FFFCCF80917A008F7B80937A0080910E
:100170007800909179000895FC019191992339F0CC
:100180008091C00085FFFCCF9093C600F6CF089504
:10019000CF93DF93CDB7DEB7A8970FB6F894DEBF45
:1001A0000FBECDBF80E88093610083E08093610043
:1001B0008FEF8AB984B917B891EA94BD82E085BD02
:1001C0009093B0008093B1001092C50083E38093B8
:1001D000C4008091C20086608093C2008091C100FB
:1001E00088608093C10080917A00806880937A0053
:1001F0000AE010E0C12CD12C76014601570190E0B5
:1002000080E00E946B00BC0190E080E00E9421022F
:100210009B01AC01C501B4010E947A014B015C0154
:1002200081E090E00E94860082E090E00E94A100C0
:10023000BC0190E080E00E9421029B01AC01C7015B
:10024000B6010E947A016B017C0101501109B9F6D7
:100250000E94EB01CB014AE0BE016F5F7F4F0E941D
:10026000E3028C0160E071E00E94D802C8010E94A4
:10027000BC002FEF84E39CE0215080409040E1F7E8
:1002800000C0000020E030E046E953E4C701B601B9
:100290000E94D30218169CF420E030E046E953E4B3
:1002A000C501B4010E94E60187FF09C00E945A00FF
:1002B0008FE097E20197F1F700C0000094CF20E0B3
:1002C00030E046E953E4C501B4010E94D302181698
:1002D0006CF420E030E046E953E4C701B6010E9427
:1002E000E60187FF03C00E945200E2CF0E94620035
:1002F0007ACF5058BB27AA270E9491010C949902EB
:100300000E948B0238F00E94920220F039F49F3F45
:1003100019F426F40C9488020EF4E095E7FB0C9493
:100320008202E92F0E94AA0258F3BA1762077307E4
:100330008407950720F079F4A6F50C94CC020EF40E
:10034000E0950B2EBA2FA02D0B01B90190010C01E5
:10035000CA01A0011124FF27591B99F0593F50F4FD
:10036000503E68F11A16F040A22F232F342F442755
:10037000585FF3CF469537952795A795F04053954D
:10038000C9F77EF41F16BA0B620B730B840BBAF01D
:100390009150A1F0FF0FBB1F661F771F881FC2F788
:1003A0000EC0BA0F621F731F841F48F4879577959C
:1003B0006795B795F7959E3F08F0B0CF9395880F56
:1003C00008F09927EE0F9795879508950E945E0291
:1003D00008F481E008950E94F2016894B1110C9430
:1003E000CD0208950E94B20288F09F5798F0B92F6D
:1003F0009927B751B0F0E1F0660F771F881F991F5A
:100400001AF0BA95C9F714C0B13091F00E94CC022D
:10041000B1E008950C94CC02672F782F8827B85F3D
:1004200039F0B93FCCF3869577956795B395D9F7B1
:100430003EF490958095709561957F4F8F4F9F4FBB
:100440000895E89409C097FB3EF4909580957095C7
:1004500061957F4F8F4F9F4F9923A9F0F92F96E910
:10046000BB279395F695879577956795B795F11185
:10047000F8CFFAF4BB0F11F460FF1BC06F5F7F4F22
:100480008F4F9F4F16C0882311F096E911C0772334
:1004900021F09EE8872F762F05C0662371F096E83D
:1004A000862F70E060E02AF09A95660F771F881F0C
:1004B000DAF7880F9695879597F90895990F0008B0
:1004C000550FAA0BE0E8FEEF16161706E807F90726
:1004D000C0F012161306E407F50798F0621B730BC1
:1004E000840B950B39F40A2661F0232B242B252B42
:1004F00021F408950A2609F4A140A6958FEF811DE5
:10050000811D089597F99F6780E870E060E0089585
:100510009FEF80EC089500240A941616170618061B
:100520000906089500240A941216130614060506F7
:100530000895092E0394000C11F4882352F0BB0F88
:1005400040F4BF2B11F460FF04C06F5F7F4F8F4FEB
:100550009F4F089557FD9058440F551F59F05F3F26
:1005600071F04795880F97FB991F61F09F3F79F0D5
:1005700087950895121613061406551FF2CF469557
:10058000F1DF08C0161617061806991FF1CF8695D9
:100590007105610508940895E894BB2766277727BD
:1005A000CB0197F908950E945E0208F48FEF089539
:1005B000FB01DC010D900020E9F7119701900D92ED
:1005C0000020E1F70895BB274A3031F4992322F443
:1005D000BDE2909581959F4F0C94EF02BB27FB01E4
:1005E0005527AA27880F991FAA1FA41710F0A41B2C
:1005F00083955051B9F7A05DAA3308F0A95DA19386
:10060000009779F7B111B1931192CB010C940803C3
:10061000DC01FC01672F71917723E1F7329704C069
:100620007C916D9370836291AE17BF07C8F30895F4
:04063000F894FFCF6C
:020634000A00BA
:00000001FF
