:100000000C9434000C9449000C9449000C94490061
:100010000C9449000C9449000C9449000C9449003C
:100020000C9449000C9449000C9449000C9449002C
:100030000C9449000C9449000C9449000C9449001C
:100040000C9449000C9449000C9449000C9449000C
:100050000C9449000C9449000C9449000C944900FC
:100060000C9449000C94490011241FBECFEFD8E036
:10007000DEBFCDBF11E0A0E0B1E0EEE2F9E002C0EA
:1000800005900D92A230B107D9F70E94D8000C94C8
:1000900095040C94000017BC18BC1092B300109289
:1000A000B400089517BC80E588BD1092B30010928B
:1000B000B400089517BC18BC1092B30085E5809376
:1000C000B400089517BC80E588BD1092B30085E5A3
:1000D0008093B400089590E490937C0090917C000C
:1000E000892B80937C0080917A00806580937A00D0
:1000F00080917A0084FFFCCF80917A008F7B80937F
:100100007A008091780090917900089591E490931D
:100110007C0090917C00892B80937C0080917A00F8
:10012000806580937A0080917A0084FFFCCF809173
:100130007A008F7B80937A0080917800909179008B
:10014000089592E890937C0090917C00892B809395
:100150007C0080917A00806580937A0080917A009B
:1001600084FFFCCF80917A008F7B80937A0080910E
:1001700078009091790008951092C50083E38093F0
:10018000C400E2ECF0E0808186608083E1ECF0E086
:100190008081886080830895FC019191992339F0D2
:1001A0008091C00085FFFCCF9093C600F6CF0895E4
:1001B000CF93DF93CDB7DEB72E970FB6F894DEBF9F
:1001C0000FBECDBF80E88093610083E08093610023
:1001D0008FEF8AB984B917B891EA94BD82E085BDE2
:1001E0009093B0008093B1000E94BC00312C212C70
:1001F0001D861E8619861A861B861C8620E820937B
:1002000061001092610080917A00806880937A008A
:100210000AE010E0812C912C540124013501750174
:10022000640190E080E00E946B00BC0190E080E0FF
:100230000E9431039B01AC01C701B6010E941D025F
:100240006B017C0181E090E00E948600BC0190E09F
:1002500080E00E9431039B01AC01C301B2010E9406
:100260001D022B013C0182E090E00E94A100BC0134
:1002700090E080E00E9431039B01AC01C501B40114
:100280000E941D024B015C010150110951F620E052
:1002900030E040E251E4C301B2010E9489022B0127
:1002A0003C0120E030E040E251E4C501B4010E948D
:1002B000890211E020E030E048EC53E40E94BF03E3
:1002C00018160CF010E001E020E030E048EC53E4B8
:1002D000C301B2010E94BF0318160CF000E020E039
:1002E00030E040E251E4C701B6010E94890220E0FB
:1002F00030E048EC53E40E94BF0318160CF092C0A3
:10030000002339F06EEF7FEF112351F070E060E0D1
:1003100007C081E01827612F70E071956195710920
:10032000072E000C880B990B0E943303F62E072F23
:10033000182FE92E262F372F482F592F69857A85B8
:100340008B859C850E941D0269877A878B879C8795
:1003500020E030E040EA51E46F2D702F812F9E2D78
:100360000E94C4034B015C0120E030E0A9016985D3
:100370007A858B859C850E94C4039B01AC01C501D5
:10038000B4010E941D024B015C01232D322D4D85CD
:100390005E856F2D702F812F9E2D0E941C0220E004
:1003A00030E0A9010E94C4039B01AC01C501B40166
:1003B0000E941D024B015C0120E030E048E452E461
:1003C0000E941D020E94020368BDA501940160E025
:1003D00070E08CE392E40E941C020E94020360938E
:1003E000B400C301B2010E94FB02CB014AE0BE018E
:1003F0006F5F7F4F0E9460046C0160E071E00E94BB
:100400005504C6010E94CC009FEF24E38CE091507C
:1004100020408040E1F700C000003F2C202E1D87C7
:10042000EE86ECCE612F70E0002309F479CF62E014
:1004300070E0111175CF6ACF5058BB27AA270E94D0
:1004400034020C9485030E94770338F00E947E03E7
:1004500020F039F49F3F19F426F40C9474030EF441
:10046000E095E7FB0C946E03E92F0E94960358F386
:10047000BA17620773078407950720F079F4A6F589
:100480000C94B8030EF4E0950B2EBA2FA02D0B019F
:10049000B90190010C01CA01A0011124FF27591BC9
:1004A00099F0593F50F4503E68F11A16F040A22FCF
:1004B000232F342F4427585FF3CF46953795279540
:1004C000A795F0405395C9F77EF41F16BA0B620B3F
:1004D000730B840BBAF09150A1F0FF0FBB1F661F86
:1004E000771F881FC2F70EC0BA0F621F731F841FC9
:1004F00048F4879577956795B795F7959E3F08F0EF
:10050000B0CF9395880F08F09927EE0F97958795B0
:1005100008950E949D020C9485030E947E0358F06A
:100520000E94770340F029F45F3F29F00C946E039A
:1005300051110C94B9030C9474030E94960368F350
:100540009923B1F3552391F3951B550BBB27AA278C
:1005500062177307840738F09F5F5F4F220F331FC6
:10056000441FAA1FA9F335D00E2E3AF0E0E832D08E
:1005700091505040E695001CCAF72BD0FE2F29D091
:10058000660F771F881FBB1F261737074807AB0763
:10059000B0E809F0BB0B802DBF01FF2793585F4FD8
:1005A0003AF09E3F510578F00C946E030C94B90319
:1005B0005F3FE4F3983ED4F3869577956795B795BA
:1005C000F7959F5FC9F7880F911D9695879597F9C5
:1005D0000895E1E0660F771F881FBB1F621773073E
:1005E0008407BA0720F0621B730B840BBA0BEE1F53
:1005F00088F7E09508950E9402036894B1110C9465
:10060000B90308950E949E0388F09F5798F0B92F70
:100610009927B751B0F0E1F0660F771F881F991F37
:100620001AF0BA95C9F714C0B13091F00E94B8031E
:10063000B1E008950C94B803672F782F8827B85F2E
:1006400039F0B93FCCF3869577956795B395D9F78F
:100650003EF490958095709561957F4F8F4F9F4F99
:100660000895E89409C097FB3EF4909580957095A5
:1006700061957F4F8F4F9F4F9923A9F0F92F96E9EE
:10068000BB279395F695879577956795B795F11163
:10069000F8CFFAF4BB0F11F460FF1BC06F5F7F4F00
:1006A0008F4F9F4F16C0882311F096E911C0772312
:1006B00021F09EE8872F762F05C0662371F096E81B
:1006C000862F70E060E02AF09A95660F771F881FEA
:1006D000DAF7880F9695879597F9089597F99F67A8
:1006E00080E870E060E008959FEF80EC08950024BA
:1006F0000A941616170618060906089500240A9487
:1007000012161306140605060895092E0394000C0C
:1007100011F4882352F0BB0F40F4BF2B11F460FF9B
:1007200004C06F5F7F4F8F4F9F4F089557FD9058C4
:10073000440F551F59F05F3F71F04795880F97FBA5
:10074000991F61F09F3F79F087950895121613065F
:100750001406551FF2CF4695F1DF08C0161617068E
:100760001806991FF1CF86957105610508940895C3
:10077000E894BB2766277727CB0197F908950E9455
:10078000310408F48FEF08950E94D7030C94850379
:100790000E94770338F00E947E0320F0952311F029
:1007A0000C946E030C94740311240C94B9030E94EE
:1007B000960370F3959FC1F3950F50E0551F629F0C
:1007C000F001729FBB27F00DB11D639FAA27F00DAA
:1007D000B11DAA1F649F6627B00DA11D661F829FD1
:1007E0002227B00DA11D621F739FB00DA11D621FB6
:1007F000839FA00D611D221F749F3327A00D611DD3
:10080000231F849F600D211D822F762F6A2F1124B4
:100810009F5750409AF0F1F088234AF0EE0FFF1FE7
:10082000BB1F661F771F881F91505040A9F79E3F3E
:10083000510580F00C946E030C94B9035F3FE4F310
:10084000983ED4F3869577956795B795F795E79594
:100850009F5FC1F7FE2B880F911D9695879597F99D
:100860000895990F0008550FAA0BE0E8FEEF161641
:100870001706E807F907C0F012161306E407F50794
:1008800098F0621B730B840B950B39F40A2661F008
:10089000232B242B252B21F408950A2609F4A140AB
:1008A000A6958FEF811D811D0895FB01DC010D9040
:1008B0000020E9F7119701900D920020E1F70895CB
:1008C000BB274A3031F4992322F4BDE290958195FB
:1008D0009F4F0C946C04BB27FB015527AA27880F58
:1008E000991FAA1FA41710F0A41B83955051B9F7A4
:1008F000A05DAA3308F0A95DA193009779F7B11123
:10090000B1931192CB010C948504DC01FC01672F9B
:1009100071917723E1F7329704C07C916D937083D6
:0E0920006291AE17BF07C8F30895F894FFCF99
:02092E000A00BD
:00000001FF
