:100000000C9434000C943E000C943E000C943E0082
:100010000C943E000C943E000C943E000C943E0068
:100020000C943E000C943E000C943E000C943E0058
:100030000C943E000C943E000C943E000C943E0048
:100040000C943E000C943E000C943E000C943E0038
:100050000C943E000C943E000C943E000C943E0028
:100060000C943E000C943E0011241FBECFEFD8E04C
:10007000DEBFCDBF0E945D010C94DC030C94000038
:100080002F923F924F925F926F927F928F929F92A8
:10009000AF92BF92CF92DF92EF92FF920F931F9396
:1000A000CF93DF9300D000D0CDB7DEB79C838B8396
:1000B0002B011A013A8329833501FC01208131810A
:1000C00042815381F70160817181828193810E9415
:1000D0001802F7016083718382839383F601208184
:1000E000318142815381EB81FC8160817181828108
:1000F00093810E9417024B015C01F301808291827F
:10010000A282B382EB81FC812081318142815381C3
:10011000F20160817181828193810E946F032B01C2
:100120003C01F7012081318142815381F1016081DD
:100130007181828193810E946F039B01AC01C30195
:10014000B2010E9418022B013C01E981FA81208151
:10015000318142815381C501B4010E946F039B012B
:10016000AC01C301B2010E9418024B015C01F8010D
:1001700020813181428153810E9418020E948902AC
:100180006093B400A5019401F801608171818281BE
:1001900093810E9417020E94890268BDEB81FC8155
:1001A00080819181A281B381F60180839183A283B2
:1001B000B3830F900F900F900F90DF91CF911F910D
:1001C0000F91FF90EF90DF90CF90BF90AF909F90F6
:1001D0008F907F906F905F904F903F902F900895F9
:1001E00090E490937C0090917C00892B80937C001C
:1001F00080917A00806580937A0080917A0084FFF4
:10020000FCCF80917A008F7B80937A008091780078
:1002100090917900089591E490937C0090917C00F6
:10022000892B80937C0080917A00806580937A008E
:1002300080917A0084FFFCCF80917A008F7B80933D
:100240007A008091780090917900089592E89093D7
:100250007C0090917C00892B80937C0080917A00B7
:10026000806580937A0080917A0084FFFCCF809132
:100270007A008F7B80937A0080917800909179004A
:1002800008951092C50083E38093C400E2ECF0E08F
:10029000808186608083E1ECF0E0808188608083EB
:1002A0000895FC019191992339F08091C00085FF58
:1002B000FCCF9093C600F6CF0895CF93DF93CDB7D0
:1002C000DEB7A0970FB6F894DEBF0FBECDBF80E8B3
:1002D0008093610083E0809361008FEF8AB984B9D5
:1002E00017B891EA94BD82E085BD9093B0008093E9
:1002F000B1000E9441018DEC9CECACECBEE38D8F13
:100300009E8FAF8FB8A3198E1A8E1B8E1C8E1D8ADE
:100310001E8A1F8A188E80E090E0ABE1B3E4898BDF
:100320009A8BAB8BBC8B1D861E861F86188A1986FE
:100330001A861B861C861D821E821F82188680914B
:100340007A00806880937A0082E090E00E94F0005A
:10035000BC0190E080E00E94B8024B015C0181E0AA
:1003600090E00E940B018C0190E080E00E94260149
:10037000BC0190E080E00E94B8022B013C0120E02B
:1003800030E040EF51E4C501B4010E9418026B0156
:100390007C01B80190E080E00E94B8029B01AC01B2
:1003A000C701B6010E941802A30192010E9418021F
:1003B00020E030E84AE454E40E9417026B017C011B
:1003C000A3019201C501B4010E94840220E030E043
:1003D000A90187FF21C0C701B6010E946A03181650
:1003E0000CF1C982DA82EB82FC82CE0105965C01B7
:1003F00004966C0104967C018E010F5E1F4F9E01D6
:100400002B5E3F4FAE01475E5F4FBE01635E7F4F85
:100410000C970E94400093CFC701B6010E9484024E
:1004200087FFDFCFF7FAF094F7F8F094DACF50585F
:10043000BB27AA270E942F020C9430030E9422039C
:1004400038F00E94290320F039F49F3F19F426F474
:100450000C941F030EF4E095E7FB0C941903E92FAD
:100460000E94410358F3BA17620773078407950780
:1004700020F079F4A6F50C9463030EF4E0950B2EAE
:10048000BA2FA02D0B01B90190010C01CA01A001E6
:100490001124FF27591B99F0593F50F4503E68F141
:1004A0001A16F040A22F232F342F4427585FF3CF82
:1004B000469537952795A795F0405395C9F77EF453
:1004C0001F16BA0B620B730B840BBAF09150A1F09C
:1004D000FF0FBB1F661F771F881FC2F70EC0BA0F22
:1004E000621F731F841F48F4879577956795B795AA
:1004F000F7959E3F08F0B0CF9395880F08F09927A5
:10050000EE0F9795879508950E94F50208F481E013
:1005100008950E94490388F09F5798F0B92F9927B2
:10052000B751B0F0E1F0660F771F881F991F1AF0DE
:10053000BA95C9F714C0B13091F00E946303B1E0DD
:1005400008950C946303672F782F8827B85F39F0DC
:10055000B93FCCF3869577956795B395D9F73EF477
:1005600090958095709561957F4F8F4F9F4F08951F
:10057000E89409C097FB3EF490958095709561953D
:100580007F4F8F4F9F4F9923A9F0F92F96E9BB27F3
:100590009395F695879577956795B795F111F8CF6F
:1005A000FAF4BB0F11F460FF1BC06F5F7F4F8F4FDA
:1005B0009F4F16C0882311F096E911C0772321F0D0
:1005C0009EE8872F762F05C0662371F096E8862F68
:1005D00070E060E02AF09A95660F771F881FDAF7BF
:1005E000880F9695879597F90895990F0008550FEC
:1005F000AA0BE0E8FEEF16161706E807F907C0F0A9
:1006000012161306E407F50798F0621B730B840BB0
:10061000950B39F40A2661F0232B242B252B21F48A
:1006200008950A2609F4A140A6958FEF811D811D2A
:10063000089597F99F6780E870E060E008959FEF64
:1006400080EC089500240A94161617061806090669
:10065000089500240A941216130614060506089538
:10066000092E0394000C11F4882352F0BB0F40F4C0
:10067000BF2B11F460FF04C06F5F7F4F8F4F9F4F00
:10068000089557FD9058440F551F59F05F3F71F082
:100690004795880F97FB991F61F09F3F79F08795E9
:1006A0000895121613061406551FF2CF4695F1DF72
:1006B00008C0161617061806991FF1CF8695710502
:1006C000610508940895E894BB2766277727CB0136
:1006D00097F908950E94F50208F48FEF08950E949B
:1006E00082030C9430030E94220338F00E942903F5
:1006F00020F0952311F00C9419030C941F0311247E
:100700000C9464030E94410370F3959FC1F3950F0D
:1007100050E0551F629FF001729FBB27F00DB11D85
:10072000639FAA27F00DB11DAA1F649F6627B00D15
:10073000A11D661F829F2227B00DA11D621F739FFE
:10074000B00DA11D621F839FA00D611D221F749F0C
:100750003327A00D611D231F849F600D211D822F53
:10076000762F6A2F11249F5750409AF0F1F088237A
:100770004AF0EE0FFF1FBB1F661F771F881F9150A7
:100780005040A9F79E3F510580F00C9419030C943A
:1007900064035F3FE4F3983ED4F3869577956795BD
:1007A000B795F795E7959F5FC1F7FE2B880F911DD1
:0C07B0009695879597F90895F894FFCF6F
:00000001FF
