:100000000C9434000C943E000C943E000C943E0082
:100010000C943E000C943E000C943E000C943E0068
:100020000C943E000C943E000C943E000C943E0058
:100030000C943E000C943E000C943E000C943E0048
:100040000C943E000C943E000C943E000C943E0038
:100050000C943E000C943E000C943E000C943E0028
:100060000C943E000C943E0011241FBECFEFD8E04C
:10007000DEBFCDBF0E94BA010C94AC040C9400000A
:100080002F923F924F925F926F927F928F929F92A8
:10009000AF92BF92CF92DF92EF92FF920F931F9396
:1000A000CF93DF9300D000D000D0CDB7DEB79E83D2
:1000B0008D834B011A013C832B83DA82C982FC01B8
:1000C0002081318142815381F70160817181828178
:1000D00093810E947602F701608371838283938308
:1000E000F6012081318142815381ED81FE81608161
:1000F0007181828193810E9475022B013C01F5017F
:100100004082518262827382ED81FE812081318141
:1001100042815381F40160817181828193810E94C7
:100120003F044B015C01F701208131814281538101
:10013000F10160817181828193810E943F049B0162
:10014000AC01C501B4010E9476026B017C01EB8118
:10015000FC812081318142815381C301B2010E941F
:100160003F049B01AC01C701B6010E9476022B013E
:100170003C01F80180809180A280B380AC019B019A
:10018000C501B4010E9476026B017C01A3019201BA
:10019000C501B4010E9475024B015C0120E030E012
:1001A0004FE753E4C701B6010E943A0418160CF455
:1001B00053C020E030E0A901C701B6010E94E2026D
:1001C00087FF03C0C12CD12C760120E030E04FE73F
:1001D00053E4C501B4010E943A0418160CF443C05C
:1001E00020E030E0A901C501B4010E94E20287FFCE
:1001F00003C0812C912C5401C701B6010E94590300
:100200006093B400C501B4010E94590368BDED813B
:10021000FE8180819181A281B381E981FA8180830D
:100220009183A283B38326960FB6F894DEBF0FBEE8
:10023000CDBFDF91CF911F910F91FF90EF90DF9095
:10024000CF90BF90AF909F908F907F906F905F9076
:100250004F903F902F900895C12CD12C9FE7E92E0D
:1002600093E4F92EB2CF812C912C8FE7A82E83E452
:10027000B82EC2CF90E490937C0090917C00892BA3
:1002800080937C0080917A00806580937A008091D1
:100290007A0084FFFCCF80917A008F7B80937A0074
:1002A0008091780090917900089591E490937C007A
:1002B00090917C00892B80937C0080917A008065EE
:1002C00080937A0080917A0084FFFCCF80917A003D
:1002D0008F7B80937A0080917800909179000895C7
:1002E00092E890937C0090917C00892B80937C0015
:1002F00080917A00806580937A0080917A0084FFF3
:10030000FCCF80917A008F7B80937A008091780077
:10031000909179000895E1E6F0E080E8808383E041
:1003200080838FEF8AB984B917B891EA94BD82E0CF
:1003300085BD9093B0008093B10008951092C500E0
:1003400083E38093C400E2ECF0E0808186608083E8
:10035000E1ECF0E08081886080830895FC01919158
:10036000992339F08091C00085FFFCCF9093C6009F
:10037000F6CF0895CF93DF93CDB7DEB7A0970FB632
:10038000F894DEBF0FBECDBF0E948B0180E090E0ED
:10039000AAEAB3E48D8F9E8FAF8FB8A3198E1A8E01
:1003A0001B8E1C8E80E090E0A0EAB2E48D8B9E8BC9
:1003B000AF8BB88F80E090E0AFE7B3E4898B9A8B86
:1003C000AB8BBC8B1D861E861F86188A19861A86E3
:1003D0001B861C861D821E821F82188680917A00D1
:1003E000806880937A0090E080E00E943A01BC012E
:1003F00090E080E00E9488034B015C0181E090E086
:100400000E945501BC0190E080E00E9488032B010E
:100410003C0182E090E00E9470018C0120E030E01D
:10042000A901C501B4010E947602A30192010E94B4
:1004300076026B017C01B80190E080E00E948803A5
:100440009B01AC01C701B6010E9476029B01AC0181
:1004500060E070E088E494E40E94E7026B017C01B4
:1004600020E030E048EC52E4C301B2010E943A04BB
:100470001816FCF4F7FAF094F7F8F094C982DA82CF
:10048000EB82FC82CE0105965C0104966C01049619
:100490007C018E010F5E1F4F9E012B5E3F4FAE0110
:1004A000475E5F4FBE01635E7F4F0C970E94400026
:1004B00095CF20E030E048E453E4C501B4010E9448
:1004C0003A0418166CF42AE939E949E95FE3C701EF
:1004D000B6010E943F0469837A838B839C83D2CFC9
:1004E00019821A821B821C82CDCF5058BB27AA27A3
:1004F0000E948D020C9400040E94F20338F00E94C6
:10050000F90320F039F49F3F19F426F40C94EF031B
:100510000EF4E095E7FB0C94E903E92F0E94110427
:1005200058F3BA17620773078407950720F079F428
:10053000A6F50C9433040EF4E0950B2EBA2FA02DE3
:100540000B01B90190010C01CA01A0011124FF2780
:10055000591B99F0593F50F4503E68F11A16F0407B
:10056000A22F232F342F4427585FF3CF469537957A
:100570002795A795F0405395C9F77EF41F16BA0B3F
:10058000620B730B840BBAF09150A1F0FF0FBB1FED
:10059000661F771F881FC2F70EC0BA0F621F731F36
:1005A000841F48F4879577956795B795F7959E3F93
:1005B00008F0B0CF9395880F08F09927EE0F979524
:1005C000879508950E94C50308F481E008950E946C
:1005D000FB020C9400040E94F90358F00E94F203FD
:1005E00040F029F45F3F29F00C94E90351110C9479
:1005F00034040C94EF030E94110468F39923B1F3BF
:10060000552391F3951B550BBB27AA276217730738
:10061000840738F09F5F5F4F220F331F441FAA1FCC
:10062000A9F335D00E2E3AF0E0E832D09150504088
:10063000E695001CCAF72BD0FE2F29D0660F771F36
:10064000881FBB1F261737074807AB07B0E809F01C
:10065000BB0B802DBF01FF2793585F4F3AF09E3FA1
:10066000510578F00C94E9030C9434045F3FE4F3F3
:10067000983ED4F3869577956795B795F7959F5FE4
:10068000C9F7880F911D9695879597F90895E1E030
:10069000660F771F881FBB1F621773078407BA078F
:1006A00020F0621B730B840BBA0BEE1F88F7E095EA
:1006B00008950E94190488F09F5798F0B92F992740
:1006C000B751B0F0E1F0660F771F881F991F1AF03D
:1006D000BA95C9F714C0B13091F00E943304B1E06B
:1006E00008950C943304672F782F8827B85F39F06A
:1006F000B93FCCF3869577956795B395D9F73EF4D6
:1007000090958095709561957F4F8F4F9F4F08957D
:10071000E89409C097FB3EF490958095709561959B
:100720007F4F8F4F9F4F9923A9F0F92F96E9BB2751
:100730009395F695879577956795B795F111F8CFCD
:10074000FAF4BB0F11F460FF1BC06F5F7F4F8F4F38
:100750009F4F16C0882311F096E911C0772321F02E
:100760009EE8872F762F05C0662371F096E8862FC6
:1007700070E060E02AF09A95660F771F881FDAF71D
:10078000880F9695879597F90895990F0008550F4A
:10079000AA0BE0E8FEEF16161706E807F907C0F007
:1007A00012161306E407F50798F0621B730B840B0F
:1007B000950B39F40A2661F0232B242B252B21F4E9
:1007C00008950A2609F4A140A6958FEF811D811D89
:1007D000089597F99F6780E870E060E008959FEFC3
:1007E00080EC089500240A941616170618060906C8
:1007F000089500240A941216130614060506089597
:10080000092E0394000C11F4882352F0BB0F40F41E
:10081000BF2B11F460FF04C06F5F7F4F8F4F9F4F5E
:10082000089557FD9058440F551F59F05F3F71F0E0
:100830004795880F97FB991F61F09F3F79F0879547
:100840000895121613061406551FF2CF4695F1DFD0
:1008500008C0161617061806991FF1CF8695710560
:10086000610508940895E894BB2766277727CB0194
:1008700097F908950E94C50308F48FEF08950E9428
:1008800052040C9400040E94F20338F00E94F90311
:1008900020F0952311F00C94E9030C94EF0311243C
:1008A0000C9434040E94110470F3959FC1F3950FCA
:1008B00050E0551F629FF001729FBB27F00DB11DE4
:1008C000639FAA27F00DB11DAA1F649F6627B00D74
:1008D000A11D661F829F2227B00DA11D621F739F5D
:1008E000B00DA11D621F839FA00D611D221F749F6B
:1008F0003327A00D611D231F849F600D211D822FB2
:10090000762F6A2F11249F5750409AF0F1F08823D8
:100910004AF0EE0FFF1FBB1F661F771F881F915005
:100920005040A9F79E3F510580F00C94E9030C94C8
:1009300034045F3FE4F3983ED4F38695779567954A
:10094000B795F795E7959F5FC1F7FE2B880F911D2F
:0C0950009695879597F90895F894FFCFCD
:00000001FF
