:100000000C9434000C943E000C943E000C943E0082
:100010000C943E000C943E000C943E000C943E0068
:100020000C943E000C943E000C943E000C943E0058
:100030000C943E000C943E000C943E000C943E0048
:100040000C943E000C943E000C943E000C943E0038
:100050000C943E000C943E000C943E000C943E0028
:100060000C943E000C943E0011241FBECFEFD8E04C
:10007000DEBFCDBF0E94BA010C94B7040C940000FF
:1000800090E490937C0090917C00892B80937C007D
:1000900080917A00806580937A0080917A0084FF55
:1000A000FCCF80917A008F7B80937A0080917800DA
:1000B00090917900089591E490937C0090917C0058
:1000C000892B80937C0080917A00806580937A00F0
:1000D00080917A0084FFFCCF80917A008F7B80939F
:1000E0007A008091780090917900089592E8909339
:1000F0007C0090917C00892B80937C0080917A0019
:10010000806580937A0080917A0084FFFCCF809193
:100110007A008F7B80937A008091780090917900AB
:100120000895E1E6F0E080E8808383E080838FEF4C
:100130008AB984B917B891EA94BD82E085BD9093DD
:10014000B0008093B10008951092C50083E38093BE
:10015000C400E2ECF0E0808186608083E1ECF0E0B6
:100160008081886080830895FC019191992339F002
:100170008091C00085FFFCCF9093C600F6CF089514
:100180002F923F924F925F926F927F928F929F92A7
:10019000AF92BF92CF92DF92EF92FF920F931F9395
:1001A000CF93DF9300D000D000D0CDB7DEB79E83D1
:1001B0008D834B011A013C832B83DA82C982FC01B7
:1001C0002081318142815381F70160817181828177
:1001D00093810E948102F7016083718382839383FC
:1001E000F6012081318142815381ED81FE81608160
:1001F0007181828193810E9480022B013C01F50173
:100200004082518262827382ED81FE812081318140
:1002100042815381F40160817181828193810E94C6
:100220004A044B015C01F7012081318142815381F5
:10023000F10160817181828193810E944A049B0156
:10024000AC01C501B4010E9481026B017C01EB810C
:10025000FC812081318142815381C301B2010E941E
:100260004A049B01AC01C701B6010E9481022B0127
:100270003C01F80180809180A280B380AC019B0199
:10028000C501B4010E9481026B017C01A3019201AE
:10029000C501B4010E9480024B015C0120E030E006
:1002A0004FE753E4C701B6010E94450418160CF449
:1002B00053C020E030E0A901C701B6010E94ED0261
:1002C00087FF03C0C12CD12C760120E030E04FE73E
:1002D00053E4C501B4010E94450418160CF443C050
:1002E00020E030E0A901C501B4010E94ED0287FFC2
:1002F00003C0812C912C5401C701B6010E946403F4
:100300006093B400C501B4010E94640368BDED812F
:10031000FE8180819181A281B381E981FA8180830C
:100320009183A283B38326960FB6F894DEBF0FBEE7
:10033000CDBFDF91CF911F910F91FF90EF90DF9094
:10034000CF90BF90AF909F908F907F906F905F9075
:100350004F903F902F900895C12CD12C9FE7E92E0C
:1003600093E4F92EB2CF812C912C8FE7A82E83E451
:10037000B82EC2CFCF93DF93CDB7DEB7A4970FB619
:10038000F894DEBF0FBECDBF0E94910084E299EFCA
:10039000A0E7B3E48D8F9E8FAF8FB8A3198E1A8E0E
:1003A0001B8E1C8E1D8A1E8A1F8A188E80E090E08C
:1003B000AFE7B3E4898B9A8BAB8BBC8B1D861E8613
:1003C0001F86188A19861A861B861C861D821E8225
:1003D0001F82188680917A00806880937A0090E06E
:1003E00080E00E944000BC0190E080E00E94930306
:1003F0006B017C0181E090E00E945B00BC0190E019
:1004000080E00E9493032B013C0182E090E00E9477
:100410007600BC0190E080E00E94930369A37AA378
:100420008BA39CA320E030E0A901C701B6010E9484
:100430008102A30192010E94810229A13AA14BA14C
:100440005CA10E9481029B01AC0160E070E088E445
:1004500094E40E94F2024B015C0120E030E048ECA1
:1004600052E4C301B2010E94450420E030E048E4B8
:1004700053E41816D4F5C701B6010E9445041816B6
:100480003CF520E030E048EC53E469A17AA18BA16F
:100490009CA10E9445041816DCF419821A821B8262
:1004A0001C82CE0105965C0104966C0104967C01C9
:1004B0008E010F5E1F4F9E012B5E3F4FAE01475EC8
:1004C0005F4FBE01635E7F4F0C970E94C00082CFDA
:1004D0002DEC3CEC4CE85FEBC501B4010E944A04F2
:1004E00069837A838B839C83DCCFC701B6010E942A
:1004F0004504181694F62AE939E949E95FE3ECCF97
:100500005058BB27AA270E9498020C940B040E9403
:10051000FD0338F00E94040420F039F49F3F19F4E1
:1005200026F40C94FA030EF4E095E7FB0C94F40324
:10053000E92F0E941C0458F3BA1762077307840757
:10054000950720F079F4A6F50C943E040EF4E0959E
:100550000B2EBA2FA02D0B01B90190010C01CA017D
:10056000A0011124FF27591B99F0593F50F4503E28
:1005700068F11A16F040A22F232F342F4427585F1A
:10058000F3CF469537952795A795F0405395C9F732
:100590007EF41F16BA0B620B730B840BBAF09150EA
:1005A000A1F0FF0FBB1F661F771F881FC2F70EC089
:1005B000BA0F621F731F841F48F48795779567955C
:1005C000B795F7959E3F08F0B0CF9395880F08F048
:1005D0009927EE0F9795879508950E94D00308F408
:1005E00081E008950E9406030C940B040E94040409
:1005F00058F00E94FD0340F029F45F3F29F00C946D
:10060000F40351110C943F040C94FA030E941C044F
:1006100068F39923B1F3552391F3951B550BBB2731
:10062000AA2762177307840738F09F5F5F4F220F76
:10063000331F441FAA1FA9F335D00E2E3AF0E0E86D
:1006400032D091505040E695001CCAF72BD0FE2FB7
:1006500029D0660F771F881FBB1F2617370748074B
:10066000AB07B0E809F0BB0B802DBF01FF27935803
:100670005F4F3AF09E3F510578F00C94F4030C94D0
:100680003F045F3FE4F3983ED4F3869577956795F2
:10069000B795F7959F5FC9F7880F911D9695879538
:1006A00097F90895E1E0660F771F881FBB1F621757
:1006B00073078407BA0720F0621B730B840BBA0B15
:1006C000EE1F88F7E09508950E94240488F09F5754
:1006D00098F0B92F9927B751B0F0E1F0660F771F66
:1006E000881F991F1AF0BA95C9F714C0B13091F05C
:1006F0000E943E04B1E008950C943E04672F782FC9
:100700008827B85F39F0B93FCCF386957795679520
:10071000B395D9F73EF490958095709561957F4F8C
:100720008F4F9F4F0895E89409C097FB3EF4909532
:100730008095709561957F4F8F4F9F4F9923A9F0BA
:10074000F92F96E9BB279395F69587957795679549
:10075000B795F111F8CFFAF4BB0F11F460FF1BC08D
:100760006F5F7F4F8F4F9F4F16C0882311F096E920
:1007700011C0772321F09EE8872F762F05C06623CE
:1007800071F096E8862F70E060E02AF09A95660F87
:10079000771F881FDAF7880F9695879597F9089540
:1007A000990F0008550FAA0BE0E8FEEF1616170682
:1007B000E807F907C0F012161306E407F50798F0EA
:1007C000621B730B840B950B39F40A2661F0232B03
:1007D000242B252B21F408950A2609F4A140A6957F
:1007E0008FEF811D811D089597F99F6780E870E064
:1007F00060E008959FEF80EC089500240A94161697
:10080000170618060906089500240A9412161306FE
:10081000140605060895092E0394000C11F488238C
:1008200052F0BB0F40F4BF2B11F460FF04C06F5FA8
:100830007F4F8F4F9F4F089557FD9058440F551F7E
:1008400059F05F3F71F04795880F97FB991F61F052
:100850009F3F79F087950895121613061406551FC9
:10086000F2CF4695F1DF08C0161617061806991F35
:10087000F1CF86957105610508940895E894BB272A
:1008800066277727CB0197F908950E94D00308F4D3
:100890008FEF08950E945D040C940B040E94FD03E9
:1008A00038F00E94040420F0952311F00C94F40316
:1008B0000C94FA0311240C943F040E941C0470F35E
:1008C000959FC1F3950F50E0551F629FF001729FF5
:1008D000BB27F00DB11D639FAA27F00DB11DAA1F04
:1008E000649F6627B00DA11D661F829F2227B00D51
:1008F000A11D621F739FB00DA11D621F839FA00DDC
:10090000611D221F749F3327A00D611D231F849F2B
:10091000600D211D822F762F6A2F11249F57504082
:100920009AF0F1F088234AF0EE0FFF1FBB1F661FFD
:10093000771F881F91505040A9F79E3F510580F0C6
:100940000C94F4030C943F045F3FE4F3983ED4F31B
:10095000869577956795B795F795E7959F5FC1F76A
:10096000FE2B880F911D9695879597F90895F89419
:02097000FFCFB7
:00000001FF
