:100000000C9434000C9449000C9449000C94490061
:100010000C9449000C9449000C9449000C9449003C
:100020000C9449000C9449000C9449000C9449002C
:100030000C9449000C9449000C9449000C9449001C
:100040000C9449000C9449000C9449000C9449000C
:100050000C9449000C9449000C9449000C944900FC
:100060000C9449000C94490011241FBECFEFD8E036
:10007000DEBFCDBF11E0A0E0B1E0E6E1F9E002C0F3
:1000800005900D92A630B107D9F70E949C010C94FF
:1000900089040C9400002F923F924F925F926F92CE
:1000A0007F928F929F92AF92BF92CF92DF92EF9208
:1000B000FF920F931F93CF93DF9300D000D000D017
:1000C000CDB7DEB79E838D834B011A013C832B8312
:1000D000DA82C982FC012081318142815381F7019A
:1000E00060817181828193810E947E02F701608329
:1000F000718382839383F601208131814281538110
:10010000ED81FE8160817181828193810E947D02F7
:100110002B013C01F5014082518262827382ED81A4
:10012000FE812081318142815381F401608171819E
:10013000828193810E94DC034B015C01F7012081E5
:10014000318142815381F10160817181828193818A
:100150000E94DC039B01AC01C501B4010E947E0238
:100160006B017C01EB81FC812081318142815381D3
:10017000C301B2010E94DC039B01AC01C701B601BF
:100180000E947E022B013C01F80180809180A280B8
:10019000B380AC019B01C501B4010E947E0220E046
:1001A00030E048E452E40E947E026B017C01A3012E
:1001B0009201C501B4010E947D024B015C0120E067
:1001C00030E04FE753E4C701B6010E94D703181689
:1001D00034F4C12CD12C9FE7E92E93E4F92E20E0D2
:1001E00030E04FE753E4C501B4010E94D70318166D
:1001F00034F4812C912C8FE7A82E83E4B82EC7010C
:10020000B6010E94F6026093B400C501B4010E94D9
:10021000F60268BDED81FE8180819181A281B3816A
:10022000E981FA8180839183A283B38326960FB6F6
:10023000F894DEBF0FBECDBFDF91CF911F910F911C
:10024000FF90EF90DF90CF90BF90AF909F908F90F6
:100250007F906F905F904F903F902F90089590E423
:1002600090937C0090917C00892B80937C008091FE
:100270007A00806580937A0080917A0084FFFCCFB9
:1002800080917A008F7B80937A00809178009091A2
:100290007900089591E490937C0090917C00892BE3
:1002A00080937C0080917A00806580937A008091B1
:1002B0007A0084FFFCCF80917A008F7B80937A0054
:1002C0008091780090917900089592E890937C0055
:1002D00090917C00892B80937C0080917A008065CE
:1002E00080937A0080917A0084FFFCCF80917A001D
:1002F0008F7B80937A0080917800909179000895A7
:100300001092C50083E38093C400E2ECF0E08081AA
:1003100086608083E1ECF0E08081886080830895CE
:10032000FC019191992339F08091C00085FFFCCFA9
:100330009093C600F6CF0895CF93DF93CDB7DEB785
:100340002E970FB6F894DEBF0FBECDBF80E8809326
:10035000610083E0809361008FEF8AB984B917B898
:1003600091EA94BD82E085BD9093B0008093B10086
:100370000E94800120E8209361001092610080912A
:100380007A00806880937A0090E080E00E942F01DC
:100390008C01BC0190E080E00E9425032B013C0110
:1003A00081E090E00E944A011C01BC0190E080E0E5
:1003B0000E9425034B015C0182E090E00E946501F0
:1003C0009A878987BC0190E080E00E9425036B87B3
:1003D0007C878D879E8720E030E040EF51E4C301A9
:1003E000B2010E947E029B01AC01C501B4010E94D2
:1003F0007E029B01AC016B857C858D859E850E946C
:100400007E0220E030E04FE254E40E947D026B0166
:100410007C012B853C854D855E85C501B4010E941C
:10042000EA0287FF0EC020E030E0A901C701B60153
:100430000E94D7031816B4F4F7FAF094F7F8F09482
:1004400011C0A5019401C301B2010E94D70318167F
:100450004CF420E030E0A901C701B6010E94EA0295
:1004600087FDEACF4AE0BE016F5F7F4FC8010E945F
:1004700054048C0160E071E00E944904C8010E94AC
:1004800090014AE0BE016F5F7F4FC1010E9454049A
:100490008C0162E071E00E944904C8010E94900151
:1004A0004AE0BE016F5F7F4F89859A850E945404A0
:1004B0008C0162E071E00E944904C8010E94900131
:1004C000C701B6010E94EF02CB014AE0BE016F5F97
:1004D0007F4F0E9454048C0160E071E00E94490447
:1004E000C8010E9490013FEF84E39CE031508040BE
:1004F0009040E1F700C000003DCF5058BB27AA272D
:100500000E9495020C949D030E948F0338F00E9474
:10051000960320F039F49F3F19F426F40C948C03D1
:100520000EF4E095E7FB0C948603E92F0E94AE03DE
:1005300058F3BA17620773078407950720F079F418
:10054000A6F50C94D0030EF4E0950B2EBA2FA02D37
:100550000B01B90190010C01CA01A0011124FF2770
:10056000591B99F0593F50F4503E68F11A16F0406B
:10057000A22F232F342F4427585FF3CF469537956A
:100580002795A795F0405395C9F77EF41F16BA0B2F
:10059000620B730B840BBAF09150A1F0FF0FBB1FDD
:1005A000661F771F881FC2F70EC0BA0F621F731F26
:1005B000841F48F4879577956795B795F7959E3F83
:1005C00008F0B0CF9395880F08F09927EE0F979514
:1005D000879508950E94620308F481E008950E94BF
:1005E000F6026894B1110C94D10308950E94B603E9
:1005F00088F09F5798F0B92F9927B751B0F0E1F0E4
:10060000660F771F881F991F1AF0BA95C9F714C093
:10061000B13091F00E94D003B1E008950C94D00362
:10062000672F782F8827B85F39F0B93FCCF38695CC
:1006300077956795B395D9F73EF490958095709529
:1006400061957F4F8F4F9F4F0895E89409C097FBA6
:100650003EF490958095709561957F4F8F4F9F4F99
:100660009923A9F0F92F96E9BB279395F6958795DD
:1006700077956795B795F111F8CFFAF4BB0F11F4A0
:1006800060FF1BC06F5F7F4F8F4F9F4F16C0882347
:1006900011F096E911C0772321F09EE8872F762F7D
:1006A00005C0662371F096E8862F70E060E02AF0BE
:1006B0009A95660F771F881FDAF7880F96958795AA
:1006C00097F90895990F0008550FAA0BE0E8FEEF7F
:1006D00016161706E807F907C0F012161306E40706
:1006E000F50798F0621B730B840B950B39F40A26FF
:1006F00061F0232B242B252B21F408950A2609F4DD
:10070000A140A6958FEF811D811D089597F99F67E0
:1007100080E870E060E008959FEF80EC0895002489
:100720000A941616170618060906089500240A9456
:1007300012161306140605060895092E0394000CDC
:1007400011F4882352F0BB0F40F4BF2B11F460FF6B
:1007500004C06F5F7F4F8F4F9F4F089557FD905894
:10076000440F551F59F05F3F71F04795880F97FB75
:10077000991F61F09F3F79F087950895121613062F
:100780001406551FF2CF4695F1DF08C0161617065E
:100790001806991FF1CF8695710561050894089593
:1007A000E894BB2766277727CB0197F908950E9425
:1007B000620308F48FEF08950E94EF030C949D03E9
:1007C0000E948F0338F00E94960320F0952311F0C9
:1007D0000C9486030C948C0311240C94D1030E9476
:1007E000AE0370F3959FC1F3950F50E0551F629FC4
:1007F000F001729FBB27F00DB11D639FAA27F00D7A
:10080000B11DAA1F649F6627B00DA11D661F829FA0
:100810002227B00DA11D621F739FB00DA11D621F85
:10082000839FA00D611D221F749F3327A00D611DA2
:10083000231F849F600D211D822F762F6A2F112484
:100840009F5750409AF0F1F088234AF0EE0FFF1FB7
:10085000BB1F661F771F881F91505040A9F79E3F0E
:10086000510580F00C9486030C94D1035F3FE4F3B0
:10087000983ED4F3869577956795B795F795E79564
:100880009F5FC1F7FE2B880F911D9695879597F96D
:100890000895FB01DC010D900020E9F7119701900C
:1008A0000D920020E1F70895BB274A3031F49923D7
:1008B00022F4BDE2909581959F4F0C946004BB2774
:1008C000FB015527AA27880F991FAA1FA41710F00C
:1008D000A41B83955051B9F7A05DAA3308F0A95D18
:1008E000A193009779F7B111B1931192CB010C94B8
:1008F0007904DC01FC01672F71917723E1F73297CE
:1009000004C07C916D9370836291AE17BF07C8F3EA
:060910000895F894FFCFEA
:060916000A002C20000085
:00000001FF
