:100000000C9434000C9451000C9451000C94510049
:100010000C9451000C9451000C9451000C9451001C
:100020000C9451000C9451000C9451000C9451000C
:100030000C9451000C9451000C9451000C945100FC
:100040000C9451000C9451000C9451000C945100EC
:100050000C9451000C9451000C9451000C945100DC
:100060000C9451000C94510011241FBECFEFD8E026
:10007000DEBFCDBF11E0A0E0B1E0E6EAF7E002C0EC
:1000800005900D92A031B107D9F721E0A0E1B1E0D0
:1000900001C01D92AE32B207E1F70E9428010C9414
:1000A000D1030C9400004F925F926F927F928F92D7
:1000B0009F92AF92BF92CF92DF92EF92FF925A013E
:1000C0009B01AC0160E070E081E994E40E942E02A3
:1000D0006B017C0189ECA816B10454F023E333E3EF
:1000E00043EB5FEBC701B6010E9464036B017C0127
:1000F000609122017091230180912401909125014A
:100100000E94D802A70196010E94C2010E94A0028B
:100110002B013C0140922201509223016092240164
:1001200070922501C701B6010E94A0024B015C013B
:1001300080921E0190921F01A0922001B092210195
:10014000C301B2010E94D80220912A0130912B01F3
:1001500040912C0150912D010E9464032B013C0120
:1001600020910C0130910D0140910E0150910F0131
:10017000C701B6010E9464039B01AC01C301B20137
:100180000E94C2012B013C01C501B4010E94D802AA
:100190009B01AC01C701B6010E94C1012091080179
:1001A0003091090140910A0150910B010E946403B2
:1001B0009B01AC01C301B2010E94C201FF90EF900C
:1001C000DF90CF90BF90AF909F908F907F906F9077
:1001D0005F904F900895E1E6F0E080E88083108220
:1001E00017B88FEF84B98AB98091280187BD18BCF0
:1001F00083EA84BD92E095BD909126019093B3006F
:100200001092B4008093B00082EA8093B100EAE7D4
:10021000F0E0808180688083089590E490937C0072
:1002200090917C00892B80937C0080917A0080657E
:1002300080937A0080917A0084FFFCCF80917A00CD
:100240008F7B80937A008091780090917900089557
:100250000E94EB000FEF10E082E090E00E940D01A1
:10026000909319018093180181E090E00E940D01A4
:1002700090931B0180931A0190E080E00E940D0191
:10028000EC0190931D0180931C01E0901A01F09005
:100290001B0160911801709119016E0D7F1D680F8F
:1002A000791F90E080E00E94D60260931001709365
:1002B000110180931201909313019E01A7010E94E6
:1002C00053006B017C01C0921401D0921501E092A1
:1002D0001601F0921701209104013091050140911F
:1002E0000601509107010E94C2010E94A002EB0189
:1002F0007093290160932801A70196016091000184
:100300007091010180910201909103010E94C1014D
:100310000E94A0027093270160932601CF3FD10570
:1003200059F154F110932901009328016F3F710591
:1003300081F07CF010932701009326018091280121
:10034000909129018436910524F41092290110928C
:10035000280180912601909127018436910524F48B
:100360001092270110922601809128018093B400F9
:100370008091260188BD70CF6F3F710509F0D4F6DA
:10038000DDCF5058BB27AA270E94D9010C942A031D
:100390000E941C0338F00E94230320F039F49F3F91
:1003A00019F426F40C9419030EF4E095E7FB0C9471
:1003B0001303E92F0E943B0358F3BA176207730730
:1003C0008407950720F079F4A6F50C945D030EF4EC
:1003D000E0950B2EBA2FA02D0B01B90190010C0155
:1003E000CA01A0011124FF27591B99F0593F50F46D
:1003F000503E68F11A16F040A22F232F342F4427C5
:10040000585FF3CF469537952795A795F0405395BC
:10041000C9F77EF41F16BA0B620B730B840BBAF08C
:100420009150A1F0FF0FBB1F661F771F881FC2F7F7
:100430000EC0BA0F621F731F841F48F4879577950B
:100440006795B795F7959E3F08F0B0CF9395880FC5
:1004500008F09927EE0F9795879508950E9442021C
:100460000C942A030E94230358F00E941C0340F0BE
:1004700029F45F3F29F00C94130351110C945E038F
:100480000C9419030E943B0368F39923B1F355239D
:1004900091F3951B550BBB27AA2762177307840797
:1004A00038F09F5F5F4F220F331F441FAA1FA9F32D
:1004B00035D00E2E3AF0E0E832D091505040E6951B
:1004C000001CCAF72BD0FE2F29D0660F771F881F7C
:1004D000BB1F261737074807AB07B0E809F0BB0B6F
:1004E000802DBF01FF2793585F4F3AF09E3F510583
:1004F00078F00C9413030C945E035F3FE4F3983E92
:10050000D4F3869577956795B795F7959F5FC9F76B
:10051000880F911D9695879597F90895E1E0660FEC
:10052000771F881FBB1F621773078407BA0720F065
:10053000621B730B840BBA0BEE1F88F7E0950895CE
:100540000E94A7026894B1110C945E0308950E9462
:10055000430388F09F5798F0B92F9927B751B0F00F
:10056000E1F0660F771F881F991F1AF0BA95C9F737
:1005700014C0B13091F00E945D03B1E008950C9475
:100580005D03672F782F8827B85F39F0B93FCCF328
:10059000869577956795B395D9F73EF490958095B4
:1005A000709561957F4F8F4F9F4F0895E89409C0D4
:1005B00097FB3EF490958095709561957F4F8F4F96
:1005C0009F4F9923A9F0F92F96E9BB279395F695AC
:1005D000879577956795B795F111F8CFFAF4BB0F2A
:1005E00011F460FF1BC06F5F7F4F8F4F9F4F16C08E
:1005F000882311F096E911C0772321F09EE8872F18
:10060000762F05C0662371F096E8862F70E060E0D3
:100610002AF09A95660F771F881FDAF7880F96954C
:10062000879597F9089597F99F6780E870E060E0F3
:1006300008959FEF80EC089500240A94161617067B
:1006400018060906089500240A94121613061406C3
:1006500005060895092E0394000C11F4882352F026
:10066000BB0F40F4BF2B11F460FF04C06F5F7F4FDE
:100670008F4F9F4F089557FD9058440F551F59F0C5
:100680005F3F71F04795880F97FB991F61F09F3F7F
:1006900079F087950895121613061406551FF2CFA8
:1006A0004695F1DF08C0161617061806991FF1CFF8
:1006B00086957105610508940895E894BB2766271F
:1006C0007727CB0197F908950E9477030C942A03AA
:1006D0000E941C0338F00E94230320F0952311F0A0
:1006E0000C9413030C94190311240C945E030E94C0
:1006F0003B0370F3959FC1F3950F50E0551F629F28
:10070000F001729FBB27F00DB11D639FAA27F00D6A
:10071000B11DAA1F649F6627B00DA11D661F829F91
:100720002227B00DA11D621F739FB00DA11D621F76
:10073000839FA00D611D221F749F3327A00D611D93
:10074000231F849F600D211D822F762F6A2F112475
:100750009F5750409AF0F1F088234AF0EE0FFF1FA8
:10076000BB1F661F771F881F91505040A9F79E3FFF
:10077000510580F00C9413030C945E035F3FE4F387
:10078000983ED4F3869577956795B795F795E79555
:100790009F5FC1F7FE2B880F911D9695879597F95E
:0607A0000895F894FFCF5C
:1007A60000007F4300007F430000C84200009643DC
:00000001FF
